:020000040800F2
:1000000000070020E55200086B6E000851520008FE
:100010005152000851520008515200085152000834
:100020005152000851520008515200082D51000849
:1000300051520008515200087D500008C54E00087A
:10004000BD520008BD520008BD520008BD52000854
:10005000BD520008BD520008BD520008BD52000844
:10006000BD520008BD520008BD520008BD52000834
:10007000BD520008BD520008BD520008BD52000824
:10008000BD520008BD520008BD520008BD52000814
:10009000BD520008BD520008BD520008BD52000804
:1000A000BD520008BD520008BD520008BD520008F4
:1000B000BD520008BD520008BD520008BD520008E4
:1000C000BD520008BD520008BD520008BD520008D4
:1000D000BD520008BD520008BD520008BD520008C4
:1000E000BD520008BD520008BD520008BD520008B4
:1000F000BD520008BD520008BD520008BD520008A4
:10010000BD520008BD520008BD520008BD52000893
:10011000BD520008BD520008BD520008BD52000883
:10012000BD520008BD520008BD520008BD52000873
:10013000BD520008BD520008BD520008BD52000863
:10014000BD520008BD520008BD520008BD52000853
:10015000BD520008BD520008BD520008BD52000843
:10016000BD520008BD520008BD520008BD52000833
:10017000BD520008BD520008BD520008BD52000823
:10018000BD520008BD520008BD520008BD52000813
:10019000BD520008BD520008BD520008BD52000803
:1001A000BD520008BD520008BD520008BD520008F3
:1001B000BD520008BD520008BD520008BD520008E3
:0401C000BD52000824
:0C01C400FFFFFFFFFFFFFFFFFFFFFFFF3B
:1001D00001F0FF01102A2BDB10F0070F08D010F8F8
:1001E000013B013A8B422DD010F0070F42B3F6D1FC
:1001F000F0B441EA012141EA014122F007047FF015
:1002000000070023F0E80256083C85EA010586EA6B
:10021000010685FA47F5A3FA87F586FA47F6A5FAA7
:1002200087F68EB9EED1F0BC01F0FF0102F00702B3
:1002300032B110F8013B013A83EA010313B1F8D15E
:100240000020704701387047002D06BF354603383F
:10025000073815F0010F07D1013015F4807F02BF78
:10026000013015F4C03F0130F0BC0138704700BFC9
:100270001FB551EC100B244A21F00043934206DCD9
:100280009FED1F1B00F08CFA51EC100B07E01F4A8A
:10029000934209DD10EE102A0B4601F079FE41EC85
:1002A000100B05B05DF804FB684600F085F800F01F
:1002B0000300012807D0022812D0C0B99DED021B0F
:1002C0009DED000BDEE79DED021B9DED000B00F0A8
:1002D00067FE53EC102B10EE100A03F10041DEE72D
:1002E0009DED021B9DED000B00F05AFAF1E7012095
:1002F0009DED021B9DED000B00F052FEC4E700BF18
:100300000000000000000000FB21E93FFFFFEF7F3D
:100310001FB551EC100B264A21F00043934207DC35
:100320009FED211B002000F03BFE51EC100B07E07D
:10033000204A934209DD10EE102A0B4601F028FEF8
:1003400041EC100B05B05DF804FB684600F034F892
:1003500000F00300012808D002280DD0D0B90120F8
:100360009DED021B9DED000BDDE79DED021B9DED5C
:10037000000B00F015FAD8E701209DED021B9DED62
:10038000000B00F00DFE53EC102B10EE100A03F1E1
:100390000041D5E79DED021B9DED000B00F000FA3A
:1003A000F1E700BFAFF30080000000000000000094
:1003B000FB21E93FFFFFEF7F2DE9F04F57EC106B7A
:1003C000C34B8DB027F0004898450446049707DCDE
:1003D0000022002384ED000BC0E90223002527E062
:1003E000BC4B984575DC049BBB4D002B10EE100AEE
:1003F000A9A3D3E90023394636DD01F0C9FDA8459C
:1004000006460F4618D0A6A3D3E9002301F0C0FD8D
:1004100002460B46C4E900233046394601F0B8FDD8
:100420009FA3D3E9002301F0B3FDC4E90201012534
:1004300028460DB0BDE8F08F9BA3D3E9002301F05F
:10044000A7FD9BA3D3E9002306460F4601F0A0FDBC
:1004500002460B46C4E900233046394601F098FDB8
:1004600093A3D3E90023DEE701F094FDA8450646F7
:100470000F4616D08AA3D3E9002301F08BFD024674
:100480000B46C4E900233046394601F081FD84A3C0
:10049000D3E9002301F07EFD4FF0FF35C4E90201EE
:1004A000C6E781A3D3E9002301F074FD80A3D3E95B
:1004B000002306460F4601F06DFD02460B46C4E9D7
:1004C00000233046394601F063FD79A3D3E90023C8
:1004D000E0E7824B984500F3D08004F0C9F857EC70
:1004E000106B10EE100A74A3D3E90023394601F013
:1004F00007FF00227A4B01F04DFD04F091F805460C
:1005000001F094FE64A3D3E90023CDE9020101F0D8
:10051000F7FE02460B463046394601F039FD60A32E
:10052000D3E9002382468B46DDE9020101F0E8FEB3
:100530001F2D06460F460CDC6A1E6A4B53F822300C
:10054000434506D032463B465046594601F020FD11
:100550000EE032463B465046594601F019FD4FEA3F
:1005600028530593059AC1F30A53D31A102B02DCC2
:10057000C4E9000139E04CA3D3E90023DDE902011D
:1005800001F0BEFE06460F4602460B46504659464F
:1005900001F0FEFC02460B4680468946504659460D
:1005A00001F0F6FC32463B4601F0F2FC40A3D3E9F1
:1005B000002306460F46DDE9020101F0A1FE3246A6
:1005C0003B4601F0E5FC02460B4606460F46404618
:1005D000494601F0DDFC059AC1F30A53D31A312BC9
:1005E00020DCC4E90001C246CB46D4E9008950466C
:1005F00042464B46594601F0CBFC3B46324601F0A1
:10060000C7FC049B002BC4E90201BFF611AF09F13E
:1006100000436360C4F80080A06001F10043E36020
:100620006D4205E726A3D3E90023DDE9020101F0CD
:1006300067FE06460F4602460B464046494601F015
:10064000A7FC02460B4682468B464046494601F0CF
:100650009FFC32463B4601F09BFC1BA3D3E90023E1
:1006600006460F46DDE9020101F04AFE32463B46EE
:1006700001F08EFC06460F4664E71B4B984535DDBE
:1006800010EE102A3B463046394601F081FCC4E9A1
:100690000201C4E90001A1E600004054FB21F93F3A
:1006A0003163621A61B4D03D0000601A61B4D03D7C
:1006B0007370032E8A19A33B83C8C96D305FE43F72
:1006C0000000002E8A19A33BC14920259A837B395B
:1006D000FB21E93F7BD90240FB21F93FFB21394156
:1006E0000000E03F607B0008FFFFEF7F4FEA2855E6
:1006F000A5F21645A8EB055130460F4603F090FFD2
:1007000001F094FD02460B4630463946CDE90623FA
:1007100001F03EFC0022204B01F0F2FD0F460646A0
:1007200003F07EFF01F082FD02460B46304639465B
:10073000CDE9082301F02CFC0022174B01F0E0FD6D
:10074000CDE90A0106AE0327B0464FF0000A4FF08C
:10075000000B083E52465B46D6E9060107F1FF3919
:1007600002F036F8B0B90D4B0193022300932A46EC
:100770003B462146404600F0DBF8049B002B054633
:10078000BFF656AE636803F100436360E36803F1AC
:10079000004344E74F46DCE700007041E07B00087F
:1007A0002DE9F84F59EC108B29F00046B6F1795F2E
:1007B0002DED028BB0EE418AF0EE618A07DA10EE81
:1007C000100A494603F02CFF002800F089804246B9
:1007D0004B464046494601F093FD00224E4B0446ED
:1007E0000D4601F08DFD40A3D3E9002382468B46E0
:1007F0002046294601F084FD3DA3D3E9002301F002
:10080000C9FB22462B4601F07BFD3BA3D3E9002325
:1008100001F0BEFB22462B4601F072FD38A3D3E95E
:10082000002301F0B7FB22462B4601F069FD36A3F9
:10083000D3E9002301F0ACFB22462B4601F060FD1A
:1008400033A3D3E9002301F0A5FB22462B4601F098
:1008500057FD22462B4601F053FD53EC182B04465E
:100860000D464046494601F04BFD0B4602462946DF
:10087000204601F08DFB294B9E428046894611DCC3
:1008800002460B465046594601F082FB0B4624496E
:100890000246002001F07CFBBDEC028B41EC100B0A
:1008A000BDE8F88F1F4B1E499E42CCBF1E4DA6F5DA
:1008B0000015002422462B46002001F069FB224649
:1008C00006460F462B465046594601F061FB42460C
:1008D0004B4601F05DFB02460B4630463946D9E7F0
:1008E00000200F49D8E700BFD43888BEE9FAA8BD78
:1008F000C4B1B4BD9EEE213EAD529C804F7E923E6F
:100900009015CB19A001FA3E7751C1166CC1563F24
:100910004C5555555555A53F0000E03F3233D33F68
:100920000000F03F0000E93F0000D23F000000005F
:100930002DE9F04F2DED028BADF5197D12F1140F5D
:1009400008930491C64BA499099053F8213002935F
:10095000089B03F1FF33A8BFD41E0693B2BF002447
:10096000182394FBF3F46FF0170304FB033303EB3A
:10097000020B029B069A9FEDB68B03EB0208A59B28
:10098000A71A20AE03EB87090025454513DD089B18
:100990009FEDAF8B20AA02EBC3050DF5E07A4FF077
:1009A0000008029B98452FDCDDF824902F468DED42
:1009B000008B00261BE0EF4207D459F8250001F018
:1009C00035FCE6E802010135DFE751EC180BF8E7EA
:1009D000D7E90023F9E8020101F092FC02460B4638
:1009E000DDE9000101F0D6FACDE900010136069BF0
:1009F0009E42A7F10807EBDD9DED007B08F10108A1
:100A0000AAEC027B0835CCE7029B0CAA02EB83031D
:100A10000B93A59B03EB8403029C0A9398AB03EB17
:100A2000C40353E928670CADA946A046B8F1000FEE
:100A300078DC584647EC106B00F0EEFB57EC106B7F
:100A400000224FF07F5310EE100A394601F058FC97
:100A500041EC100B00F060FB002251EC100B814BBD
:100A600001F04EFC02460B463046394601F090FA42
:100A70000F46064603F0D4FD059001F0D7FB024671
:100A80000B463046394601F083FABBF1000F804631
:100A900089466FDD621E0CABCBF1180153F82200C2
:100AA000059E40FA01F31E448B40C01A0CAB05961C
:100AB00043F82200CBF1170340FA03F30093009BA5
:100AC000002B65DD059B00220133059316466FF070
:100AD0007F41944200F39980BBF1000F07DDBBF129
:100AE000010F00F0A180BBF1020F00F0A780009B76
:100AF000022B4DD142464B4600205B4901F048FA9B
:100B000080468946002E43D058469FED530B00F097
:100B100083FB4046494653EC102B01F039FA8046DE
:100B2000894635E00022514B3046394601F0E8FB5A
:100B300003F076FD01F07AFB00224D4BCDE9000178
:100B400001F0DEFB02460B463046394601F020FA42
:100B500003F066FD08F1FF3870AB03EBC80349F8FA
:100B6000040BD3E90023DDE9000101F013FA064686
:100B70000F465BE705D1631E0CAA52F82300C3158C
:100B80009CE700223B4B01F041FE00283AD1009047
:100B9000002200234046494601F01AFE002800F0DA
:100BA000B38004F1FF3A5346002202998B4265DA82
:100BB000002A00F091800CABABF1180B53F82A30EF
:100BC000002B00F09E8058469FED230B00F024FB85
:100BD000264F55EC104BD0460026B8F1000F80F29E
:100BE000CD809FED1B8B55464FF00008002DC0F2C5
:100BF000FB8070ABDFF880B003EBC50957EC186BD6
:100C00000024E3E0022300935CE72B6846B91BB1A4
:100C1000C3F180732B600123013204351E4658E76F
:100C2000CB1A2B603346F7E7621E0CAB53F8223029
:100C3000C3F316030CA941F8223058E7621E0CAB2F
:100C400053F82230C3F31503F4E700BFAFF300807D
:100C50000000000000000000000000000000F03F65
:100C6000E0790008000020400000F03F0000703EE6
:100C7000000070410000E03FF07900080CA951F835
:100C80002310013B0A4390E7013352F8041D002969
:100C9000FAD0089AA61820AA651C02EBC6061C44C6
:100CA000AC42FFF6BBAE0A9B53F8250001F0BEFA3A
:100CB000E6E80201DDF824A0009600274FF00008C6
:100CC0004FF00009069B9F4209DD70AB03EBC503A3
:100CD000C3E900890135E3E70B9A0123D5E70099C1
:100CE00071E902230091FAE8020101F009FB0246D2
:100CF0000B464046494601F04DF90137804689468A
:100D0000E0E70AF1FF3A56E7CBF1000049EC108B1F
:100D100000F082FA57EC106B00229F4B10EE100A85
:100D2000394601F073FD00B300229C4B3046394632
:100D300001F0E6FA03F074FC054601F077FA0022B0
:100D4000954B01F0DDFA0B4602463946304601F07C
:100D50001FF903F065FC04F1010A0CAB0BF1180B51
:100D600043F8240043F82A502DE73046394603F073
:100D700057FC0CABA24643F8240024E770AB03EB0E
:100D8000C8090CAB53F8280001F050FA22462B4654
:100D900001F0B6FA3246C9E900013B462046294631
:100DA00001F0AEFA08F1FF3804460D4615E7F9E800
:100DB0000223FBE8020101F0A3FA02460B4630468B
:100DC000394601F0E7F8013406460F46029B9C4283
:100DD00001DCA045EBDA48AB03EBC803C3E90067CD
:100DE000013D08F1010801E7A49B032B3DD8DFE892
:100DF00003F0456D6D0248AB03EBCA05A846D1462A
:100E0000B9F1000FA8F108086DDC5446012CA5F1DA
:100E1000080500F3898000200021BAF1010F00F3DA
:100E2000A180009BDDE94856DDE94A78002B40F0BF
:100E3000A380049BC3E90056C3E90278C3E9040117
:100E400013E048AB03EBCA03D3E9002301F0A2F897
:100E50000AF1FF3ABAF1000FF3DA009B13B101F186
:100E600000431946049BC3E90001059B03F00700FA
:100E70000DF5197DBDEC028BBDE8F08F002000213F
:100E8000E8E748AB03EBC403D3E9002301F082F8A1
:100E9000013C002CF5DA009BE3B1024601F100436E
:100EA000049CC4E9002302460B46DDE9480101F039
:100EB0006FF84AAD0124A2450FDA009B13B101F18E
:100EC00000431946049BC3E90201CEE754460020C3
:100ED0000021DEE702460B46E2E7F5E8022301F0D7
:100EE00059F80134E7E798ED007B8DED027B98ED32
:100EF000027BDDE9020153EC172B8DED067B01F03F
:100F000049F802460B4606460F46DDE9020101F0AC
:100F10003FF8DDE9062301F03DF809F1FF39C8E9A2
:100F20000201C8E900676BE7D5E90089D5E90267E6
:100F3000404632463B46494601F02CF8CDE90201D5
:100F400002460B464046494601F022F832463B46EF
:100F500001F020F89DED027B013CC5E9020185ED21
:100F6000007B53E748AB03EBCA03D3E9002301F04E
:100F700011F80AF1FF3A50E7049B049A1D6006F14C
:100F800000445C609F6008F10043D36001F10043BE
:100F90001061536169E700BF000070410000703EBE
:100FA0002DE9F04F55EC104B85B025F00043B3F11F
:100FB000795F8DED001B029006DA10EE100A2946CB
:100FC00003F02EFB002851D022462B46204629460E
:100FD00001F096F982468B4602460B46204629468A
:100FE00001F08EF941A3D3E900238046894650469B
:100FF000594601F085F93FA3D3E9002300F0C8FF6B
:1010000052465B4601F07CF93CA3D3E9002300F093
:10101000C1FF52465B4601F073F93AA3D3E90023BE
:1010200000F0B6FF52465B4601F06AF937A3D3E9F8
:10103000002300F0AFFF029B06460F46DBB90246D5
:101040000B465046594601F05BF925A3D3E900232E
:1010500000F09EFF42464B4601F052F902460B4615
:101060002046294600F096FF04460D4645EC104BFD
:1010700005B0BDE8F08F00221B4BDDE9000101F057
:101080003FF93246CDE902013B464046494601F070
:1010900037F902460B46DDE9020100F079FF5246BE
:1010A0005B4601F02DF9DDE9002300F071FF0CA390
:1010B000D3E9002306460F464046494601F020F991
:1010C00002460B463046394600F064FF02460B46A6
:1010D0002046294600F05CFFC6E700BFAFF3008062
:1010E000495555555555C53F0000E03F7CD5CF5A71
:1010F0003AD9E53DEB9C2B8AE6E55A3E7DFEB15799
:10110000E31DC73ED561C119A0012A3FA6F8101101
:101110001111813F0000000051EC100B2DE9F0414E
:10112000C1F30A57A7F2FF36132E0C4610EE105AE1
:10113000804632DC002E14DA33A3D3E9002300F01A
:1011400029FF0022002301F06BFB38B1002C57DA95
:1011500024F000431D4301D02D4C00252146284694
:1011600025E02C4F374107EA010303431FD026A394
:10117000D3E9002300F00EFF0022002301F050FB12
:101180000028EBD0002CBEBF4FF4801343FA06F6C4
:10119000A41924EA07040025E0E7332E0BDDB6F599
:1011A000806F04D110EE102A0B4600F0F3FE41ECE4
:1011B000100BBDE8F081A7F213474FF0FF3323FA7D
:1011C00007F70742F3D010A3D3E9002300F0E2FEB3
:1011D0000022002301F024FB0028BFD0002C02DAFB
:1011E000142E03D1013425EA0705B7E70123C6F120
:1011F000340603FA06F63544A84588BFE418F2E73A
:1012000000252C46AAE700BF9C7500883CE4377E89
:101210000000F0BFFFFF0F0070B555EC104BC5F399
:101220000A5206462B469AB925F00043234336D08E
:10123000394B2946002210EE100A01F061F8374BB5
:101240009E4204460D4610DA2BA3D3E900233AE070
:1012500040F2FF718A420CD110EE102A2046294636
:1012600000F098FE04460D4619E0C1F30A520B4601
:10127000363A324440F2FE718A4208DD002D20A148
:10128000D1E900011CDA20A1D1E9000118E0002A0F
:1012900008DD23F0FF4323F4E00343EA025545EC65
:1012A000104B70BD12F1350F19DA4CF250339E42DB
:1012B00005F000430ADD12A1D1E90001002BE2D1C3
:1012C0000FA3D3E9002301F01BF8CBE70AA1D1E972
:1012D0000001002BB8D00EA1D1E90001B4E723F042
:1012E000FF43363223F4E00343EA02552046294601
:1012F00000220B4BE7E700BF59F3F8C21F6EA501B0
:101300009C7500883CE4377E9C7500883CE437FE81
:1013100059F3F8C21F6EA58100005043B03CFFFF97
:101320000000903C000000002DE9F74F03690C69B4
:10133000A34280467FDB013C01F11407A00008F1C5
:1013400014052B18019357F8243055F82420013345
:101350009A4207EB0009B2FBF3F631D34FF0000AD3
:10136000BC46AE46D3465CF8042B93B206FB03A3FF
:101370004FEA134A9BB2ABEB0303120CDEF800B04A
:1013800006FB02A213FA8BF34FEA124A1FFA82FB02
:10139000DEF80020CBEB124202EB23429BB243EA81
:1013A0000243E1454FEA224B4EF8043BDBD22B5877
:1013B00033B9019B043B9D421A4630D3C8F8104014
:1013C000404602F018F9002825DB013628464FF088
:1013D000000C57F8042BD0F800E093B2ACEB0303F9
:1013E000120C13FA8EF3C2EB1E4202EB23429BB2A5
:1013F00043EA0243B9454FEA224C40F8043BE8D2A5
:1014000055F8242005EB84032AB9043B9D421A4673
:101410000BD3C8F81040304603B0BDE8F08F126817
:10142000043B002ACAD1013CC5E71268043B002AEC
:10143000EFD1013CEAE70020EEE72DE9F04F99B04B
:1014400055EC104B0891016C0D9283461493229E2B
:10145000CDE9004549B1426C4A60012393408B605D
:1014600001F0CBFE0023CBF840302B1EB9BF23F098
:101470000043019300233360019CB34BBCBF0122A6
:101480003260A3431AD1149A42F20F731360009A88
:10149000C4F31303134300F04E85239B0BB9AB4BEE
:1014A00023E0AA4B03930333239A1360039819B0E4
:1014B000BDE8F08FA64B03930833F5E79DED007B65
:1014C0000022002351EC170B8DED0E7B01F080F90B
:1014D000074660B1149A01231360239B002B00F090
:1014E00027859C4B239A1360013B0393DEE716AAE2
:1014F00017A99DED0E0B584602F06AF9C4F30A567F
:101500008046002E7FD00F9B1597C3F31303DDE9B0
:101510000E4543F07F5545F44015A6F2FF360022F4
:101520008D4B2046294600F033FD81A3D3E90023EB
:1015300000F0E6FE80A3D3E9002300F02BFD044673
:1015400030460D4600F072FE7DA3D3E9002300F083
:10155000D7FE02460B462046294600F01BFD0446F6
:101560000D4603F05DF800228246002320462946FE
:1015700001F038F948B1504600F058FE22462B469B
:1015800001F026F908B90AF1FF3ABAF1160F59D855
:10159000724B03EBCA03D3E90023DDE90E0101F02E
:1015A00021F9002850D00AF1FF3A00231193169B2D
:1015B0009E1B731E079345BFC6F1010306930023CC
:1015C00000234CBF07930693BAF1000F3EDB079B45
:1015D000CDF840A05344079300230993089B092B9F
:1015E00000F28D80052BC4BF043B0893089BA3F138
:1015F0000203CCBF00240124032B00F28B80DFE820
:1016000003F02F3C3A7CDDE916631E4406F23240BB
:10161000202811DDC0F14000009B844006F21240FA
:1016200023FA00F0204300F0F1FD01230446A1F16C
:10163000F875013E159372E7009BC0F1200003FA94
:1016400000F0F0E70123B1E71190B0E7069BA3EBB0
:101650000A030693CAF10003099300231093BDE720
:1016600000230C930D9B002B57DC01230493994618
:101670001A460D920CE00123F3E700230C930D9B17
:10168000534403F1010904934B46012BB8BF0123D6
:101690000022CBF84420042202F114009842DBF827
:1016A00044103ED9584601F083FDB9F10E0F039066
:1016B000CBF8400000F2D780002C00F0D480BAF1C3
:1016C000000F69DD254A0AF00F0302EBC30393ED17
:1016D000007B4FEA2A14E2068DED0A7B5AD5204B97
:1016E000DDE90E01D3E9082300F034FFCDE9000164
:1016F00004F00F0403261A4D41E00123BEE7012444
:10170000002308930C944FF0FF3304939946002272
:101710001223AEE701230C93F5E70D9B0493994642
:10172000B6E70131CBF844105200B5E7AFF30080C3
:1017300061436F63A787D23FB3C8608B288AC63FD7
:10174000FB799F501344D33F0000F07F22800008B4
:1017500026800008337F00080000F83F407A000828
:10176000307B0008E30708D5DDE90A01D5E900234D
:1017700000F0C6FDCDE90A01013664100835002CE1
:10178000F0D1DDE90A23DDE9000100F0E3FECDE957
:1017900000011AE00226AEE700F09F80CAF10004C3
:1017A0009E4B9F4D04F00F0203EBC203D3E90023CD
:1017B000DDE90E0100F0A4FDCDE9000124110023B4
:1017C0000226002C7ED1002BE1D1119B002B00F0D2
:1017D0008680DDE900450022924B2046294601F033
:1017E00001F800287BD0B9F1000F78D0049B002BC2
:1017F00035DD0AF1FF330A93204600228A4B294641
:1018000000F07EFDCDE90001049C0136304600F079
:101810000DFDDDE9002300F073FD0022834B00F095
:10182000B9FB0646A1F15077002C5CD10022804B19
:10183000DDE9000100F0ACFB32463B46CDE900019A
:1018400000F0EEFF002840F08A82324607F10043A4
:10185000DDE9000100F0C6FF002840F07E82DDE9EE
:101860000E34CDE90034179B002BC0F24D81BAF144
:101870000E0F00F34981694B03EBCA0393ED007B24
:101880000D9B002B8DED047B80F2D680B9F1000F0B
:1018900000F3D28040F060820022654B51EC170BC0
:1018A00000F02EFDDDE9002300F0B0FF4C464E466F
:1018B000002840F03982039D312305F8013B0AF1ED
:1018C000010A35E2E70705D5D5E9002300F018FD48
:1018D000013601236410083573E7022675E7CDF859
:1018E00028A04C4692E703994C4B03EBC4030C44ED
:1018F0000C9953E90223002944D000204D4900F0FF
:1019000029FE32463B4600F043FB039D06460F4648
:10191000DDE9000102F084FE129000F087FC02462F
:101920000B46DDE9000100F033FB129B303305F874
:10193000013B32463B46CDE9000100F053FF002851
:1019400060D1DDE900230020364900F021FB32465A
:101950003B4600F047FF002840F0B480A5423FF42A
:101960007EAF0022304B3046394600F0C9FC0022E1
:1019700006460F462C4BDDE9000100F0C1FCCDE925
:101980000001C5E73046394600F0BAFCCDE9120146
:10199000039E2546DDE9000102F042FE074600F005
:1019A00045FC303702460B46DDE9000100F0F0FA55
:1019B00006F8017BA642CDE900014FF0000226D1D6
:1019C0001C4BDDE9120100F0E5FA02460B46DDE9A9
:1019D000000100F025FF002874D1DDE9122300206A
:1019E000144900F0D5FA02460B46DDE9000100F08B
:1019F000F9FE00283FF433AF15F8013C302B05F118
:101A0000FF3202D0DDF828A04AE01546F4E7064B85
:101A100000F076FCCDE90001BCE700BF407A000889
:101A2000307B00080000F03F0000244000001C4014
:101A3000000014400000E03FDDE90067039DDDE9A0
:101A400004233046394600F085FD02F0E9FD0446E6
:101A500000F0ECFBDDE9042300F052FC02460B46EB
:101A60003046394604F1300600F092FA05F8016B71
:101A7000039EAE1BB14502460B4638D100F08AFAF0
:101A8000DDE9042306460F4600F0CAFEC0B9DDE9D1
:101A900004233046394600F09BFE08B1E1070FD41D
:101AA0004146584601F0A9FB0023149A2B700AF115
:101AB00001031360239B002B3FF4F8AC1D60F5E499
:101AC000CDF828A015F8012C392A05F1FF3308D1EB
:101AD000039A9A4209D10A9A039901320A92302252
:101AE0000A701A7801321A708CE71D46EAE7002264
:101AF0009D4B00F005FC0022002306460F4600F037
:101B000067FE00289BD0CBE70C9A002A00F0CB8020
:101B1000089A012A00F3AE80159A002A00F0A680E8
:101B200003F23343099C069D069A1A440692079ACB
:101B300001211A445846079201F031FC0646002D57
:101B40000CDD079B002B09DDAB42069AA8BF2B4694
:101B5000D21A0692079AED1AD31A0793099BF3B18A
:101B60000C9B002B00F0A380002C10DD3146224698
:101B7000584601F0ADFC424601460646584601F083
:101B800017FC41460746584601F037FBB846099B0B
:101B90001A1B04D04146584601F09AFC80460121A8
:101BA000584601F0FCFB109B002B044640F381805B
:101BB0001A460146584601F08BFC089B012B04464F
:101BC0007ADD0027236904EB8303186901F097FB92
:101BD000C0F12000079B184410F01F0000F08B801C
:101BE000C0F12003042B40F38480C0F11C00069B4D
:101BF00003440693079B034405440793069B002B6D
:101C000005DD41461A46584601F0A2FC8046079B76
:101C1000002B05DD21461A46584601F099FC044682
:101C2000119B002B69D02146404601F0E4FC0028BE
:101C300063DA002341460A22584601F0E7FA0C9B7A
:101C40000AF1FF3A8046002B00F07C8100233146E8
:101C50000A22584601F0DAFA049B002B064600F3EC
:101C60008B80089B022B40F387804EE0169BC3F1CC
:101C7000360357E7099B09F1FF34A342BFBF099B15
:101C80000994E21A109BBBBF9B1810931C1B0024E5
:101C9000B9F1000FB5BF069B069DA3EB09054B46A6
:101CA000B8BF002340E7099C069D0C9E47E7099AB0
:101CB00070E7089B012B18DC009BB3B9019BC3F3B1
:101CC0001303A3B9019B23F000473F0D3F0537B134
:101CD000069B01330693079B013307930127109B53
:101CE000002B7FF46FAF012074E70027F7E7009F18
:101CF000F5E783D018461C3079E7B9F1000F35DCE1
:101D0000089B022B32DDCDF81090049B63B921466D
:101D10000522584601F07AFA01460446404601F091
:101D20006AFC00283FF7C7AD0D9B039D6FEA030ACD
:101D300000272146584601F060FA002E3FF4B0AE6D
:101D40002FB1B74203D03946584601F056FA314612
:101D5000584601F052FAA3E600242646E4E7DDF8EF
:101D600028A02646A7E500BF000024400C9BCDF824
:101D70001090002B00F0ED80002D05DD31462A4645
:101D8000584601F0E5FB0646002F56D071685846CC
:101D900001F00EFA326902320546920006F10C019A
:101DA0000C3002F06EFC01222946584601F0D0FBAF
:101DB000039B03F10109DDE9032313440993009B0D
:101DC00003F0010337460793064609F1FF33214626
:101DD00040460093FFF7A8FA034630330490394693
:101DE00040460A9301F007FC3246069021465846C9
:101DF00001F01BFCC2680A9B054602BB0146404637
:101E000001F0F9FB0A9B0246294658460C920A93B8
:101E100001F0F3F9089B0C9A43EA0201079B0B437C
:101E20004D460A9B0DD1392B27D0069A002A01DD99
:101E3000049B3133009A13707BE73046B8E70122E8
:101E4000E2E70699002904DB08980143079801435B
:101E50001ED1002AEEDD414601225846069301F0CC
:101E600077FB2146804601F0C6FB0028069B02DC7A
:101E7000E0D1DA07DED5392BDAD1009A3923137095
:101E800015F8013C392B05F1FF3247D00133D2E779
:101E9000002A03DD392BF0D00133CBE7099A09F88A
:101EA000013C914521D0414600230A22584601F0C9
:101EB000ADF9B74280464FF000034FF00A023946B1
:101EC000584606D101F0A2F90746064609F1010974
:101ED0007BE701F09BF93146074600230A2258466A
:101EE00001F094F90646F1E70027414601225846E1
:101EF000009301F02DFB2146804601F07CFB002879
:101F0000BEDC02D1009BDB07BAD415F8013C302BB4
:101F100005F1FF327FF40DAF1546F6E7039B9342C0
:101F200004D10AF1010A3123039A84E71546A7E791
:101F3000134BFFF7DABA239B002B7FF4BBAA114B9C
:101F4000FFF7D3BA049B002B03DC089B022B3FF75F
:101F5000DCAE039D21464046FFF7E6F900F1300371
:101F600005F8013B039A0499AA1A9142BCDD414647
:101F700000230A22584601F049F98046EAE700BFEB
:101F8000327F00082680000881F0004102E000BF97
:101F900083F0004330B54FEA41044FEA430594EA29
:101FA000050F08BF90EA020F1FBF54EA000C55EA64
:101FB000020C7FEA645C7FEA655C00F0E2804FEA35
:101FC0005454D4EB5555B8BF6D420CDD2C4480EA17
:101FD000020281EA030382EA000083EA010180EA47
:101FE000020281EA0303362D88BF30BD11F0004F95
:101FF0004FEA01314FF4801C4CEA113102D04042CB
:1020000061EB410113F0004F4FEA03334CEA133305
:1020100002D0524263EB430394EA050F00F0A7801D
:10202000A4F10104D5F1200E0DDB02FA0EFC22FA18
:1020300005F2801841F1000103FA0EF2801843FA0C
:1020400005F359410EE0A5F120050EF1200E012AFD
:1020500003FA0EFC28BF4CF0020C43FA05F3C0183B
:1020600051EBE37101F0004507D54FF0000EDCF1B4
:10207000000C7EEB00006EEB0101B1F5801F1BD35D
:10208000B1F5001F0CD349085FEA30004FEA3C0C61
:1020900004F101044FEA445212F5800F80F09A8057
:1020A000BCF1004F08BF5FEA500C50F1000041EB5B
:1020B000045141EA050130BD5FEA4C0C404141EB5F
:1020C000010111F4801FA4F10104E9D191F0000F86
:1020D00004BF01460020B1FA81F308BF2033A3F109
:1020E0000B03B3F120020CDA0C3208DD02F1140C00
:1020F000C2F10C0201FA0CF021FA02F10CE002F13B
:102100001402D8BFC2F1200C01FA02F120FA0CFC33
:10211000DCBF41EA0C019040E41AA2BF01EB04517C
:10212000294330BD6FEA04041F3C1CDA0C340EDC7A
:1021300004F11404C4F1200220FA04F001FA02F3BD
:1021400040EA030021FA04F345EA030130BDC4F17B
:102150000C04C4F1200220FA02F001FA04F340EA70
:102160000300294630BD21FA04F0294630BD94F021
:10217000000F83F4801306BF81F480110134013D08
:102180004EE77FEA645C18BF7FEA655C29D094EA79
:10219000050F08BF90EA020F05D054EA000C04BFF7
:1021A0001946104630BD91EA030F1EBF00210020E2
:1021B00030BD5FEA545C05D14000494128BF41F081
:1021C000004130BD14F580043CBF01F5801130BDE5
:1021D00001F0004545F0FE4141F470014FF0000070
:1021E00030BD7FEA645C1ABF194610467FEA655C21
:1021F0001CBF0B46024650EA013406BF52EA0335C3
:1022000091EA030F41F4002130BD00BF90F0000FB0
:1022100004BF0021704730B54FF4806404F13204EC
:102220004FF000054FF0000150E700BF90F0000FA5
:1022300004BF0021704730B54FF4806404F13204CC
:1022400010F0004548BF40424FF000013EE700BF9C
:1022500042004FEAE2014FEA31014FEA02701FBF2C
:1022600012F07F4393F07F4F81F06051704732F05E
:102270007F4208BF704793F07F4F04BF41F40021B5
:10228000704730B54FF4607401F0004521F0004113
:102290001CE700BF50EA010208BF704730B54FF09D
:1022A00000050AE050EA010208BF704730B511F09E
:1022B000004502D5404261EB41014FF4806404F1D6
:1022C00032045FEA915C3FF4D8AE4FF003025FEA5C
:1022D000DC0C18BF03325FEADC0C18BF033202EBE0
:1022E000DC02C2F1200300FA03FC20FA02F001FA3A
:1022F00003FE40EA0E0021FA02F11444BDE600BFDD
:1023000070B54FF0FF0C4CF4E06C1CEA11541DBF8B
:102310001CEA135594EA0C0F95EA0C0F00F0DEF856
:102320002C4481EA030621EA4C5123EA4C5350EA3B
:10233000013518BF52EA033541F4801143F480138C
:1023400038D0A0FB02CE4FF00005E1FB02E506F01D
:102350000042E0FB03E54FF00006E1FB03569CF072
:10236000000F18BF4EF0010EA4F1FF04B6F5007F78
:1023700064F5407404D25FEA4E0E6D4146EB0606EA
:1023800042EAC62141EA55514FEAC52040EA5E5073
:102390004FEACE2EB4F1FD0C88BFBCF5E06F1ED81D
:1023A000BEF1004F08BF5FEA500E50F1000041EB54
:1023B000045170BD06F0004646EA010140EA020001
:1023C00081EA0301B4EB5C04C2BFD4EB0C0541EA23
:1023D000045170BD41F480114FF0000E013C00F338
:1023E000AB8014F1360FDEBF002001F0004170BD5C
:1023F000C4F10004203C35DA0C341BDC04F1140475
:10240000C4F1200500FA05F320FA04F001FA05F200
:1024100040EA020001F0004221F0004110EBD370CD
:1024200021FA04F642EB06015EEA430E08BF20EAF9
:10243000D37070BDC4F10C04C4F1200500FA04F39C
:1024400020FA05F001FA04F240EA020001F000412E
:1024500010EBD37041F100015EEA430E08BF20EAA1
:10246000D37070BDC4F1200500FA05F24EEA020EE9
:1024700020FA04F301FA05F243EA020321FA04F018
:1024800001F0004121FA04F220EA020000EBD370CF
:102490005EEA430E08BF20EAD37070BD94F0000FCF
:1024A0000FD101F00046400041EB010111F4801F03
:1024B00008BF013CF7D041EA060195F0000F18BFB4
:1024C000704703F00046520043EB030313F4801FF0
:1024D00008BF013DF7D043EA0603704794EA0C0FAA
:1024E0000CEA135518BF95EA0C0F0CD050EA4106C0
:1024F00018BF52EA4306D1D181EA030101F000413D
:102500004FF0000070BD50EA410606BF1046194664
:1025100052EA430619D094EA0C0F02D150EA013670
:1025200013D195EA0C0F05D152EA03361CBF1046B1
:1025300019460AD181EA030101F0004141F0FE4150
:1025400041F470014FF0000070BD41F0FE4141F4D4
:10255000780170BD70B54FF0FF0C4CF4E06C1CEAD4
:1025600011541DBF1CEA135594EA0C0F95EA0C0F89
:1025700000F0A7F8A4EB050481EA030E52EA033544
:102580004FEA013100F088804FEA03334FF0805565
:1025900045EA131343EA12634FEA022245EA111592
:1025A00045EA10654FEA00260EF000419D4208BF43
:1025B000964244F1FD0404F5407402D25B084FEAF0
:1025C0003202B61A65EB03055B084FEA32024FF49C
:1025D00080104FF4002CB6EB020E75EB030E22BFF9
:1025E000B61A754640EA0C005B084FEA3202B6EBB9
:1025F000020E75EB030E22BFB61A754640EA5C0068
:102600005B084FEA3202B6EB020E75EB030E22BFF7
:10261000B61A754640EA9C005B084FEA3202B6EBF8
:10262000020E75EB030E22BFB61A754640EADC00B7
:1026300055EA060E18D04FEA051545EA16754FEA19
:1026400006164FEAC30343EA52734FEAC2025FEA37
:102650001C1CC0D111F4801F0BD141EA00014FF0C6
:1026600000004FF0004CB6E711F4801F04BF014397
:102670000020B4F1FD0C88BFBCF5E06F3FF6AFAEB3
:10268000B5EB030C04BFB6EB020C5FEA500C50F143
:10269000000041EB045170BD0EF0004E4EEA1131C6
:1026A00014EB5C04C2BFD4EB0C0541EA045170BDCD
:1026B00041F480114FF0000E013C90E645EA060E11
:1026C0008DE60CEA135594EA0C0F08BF95EA0C0F3F
:1026D0003FF43BAF94EA0C0F0AD150EA01347FF487
:1026E00034AF95EA0C0F7FF425AF104619462CE75E
:1026F00095EA0C0F06D152EA03353FF4FDAE1046C1
:10270000194622E750EA410618BF52EA43067FF411
:10271000C5AE50EA41047FF40DAF52EA43057FF4A1
:10272000EBAE12E74FF0FF3C06E000BF4FF0010CAC
:1027300002E000BF4FF0010C4DF804CD4FEA410C10
:102740007FEA6C5C4FEA430C18BF7FEA6C5C1BD0DD
:1027500001B050EA410C0CBF52EA430C91EA030F5E
:1027600002BF90EA020F0020704710F1000F91EABB
:10277000030F58BF994208BF90422CBFD8176FEA89
:10278000E37040F0010070474FEA410C7FEA6C5C57
:1027900002D150EA013C07D14FEA430C7FEA6C5C5E
:1027A000D6D152EA033CD3D05DF8040B704700BF8A
:1027B0008446104662468C461946634600E000BFD8
:1027C00001B5FFF7B7FF002848BF10F1000F01BDAA
:1027D0004DF808EDFFF7F4FF0CBF012000205DF875
:1027E00008FB00BF4DF808EDFFF7EAFF34BF0120FA
:1027F00000205DF808FB00BF4DF808EDFFF7E0FF93
:1028000094BF012000205DF808FB00BF4DF808EDE3
:10281000FFF7CEFF94BF012000205DF808FB00BF4A
:102820004DF808EDFFF7C4FF34BF012000205DF82C
:1028300008FB00BF4FEA4102B2F1E04324BFB3F509
:10284000001CDCF1FE5C0DD901F0004C4FEAC00227
:102850004CEA5070B2F1004F40EB830008BF20F00B
:102860000100704711F0804F21D113F13872BCBFC5
:1028700001F00040704741F480114FEA5252C2F11A
:102880001802C2F1200C10FA0CF320FA02F018BF63
:1028900040F001004FEAC1234FEAD32303FA0CFCB6
:1028A00040EA0C0023FA02F34FEA4303CCE77FEA45
:1028B000625307D150EA01331EBF4FF0FE4040F48F
:1028C0004000704701F0004040F0FE4040F400003E
:1028D000704700BF2DE9FF4755EC104B002D0E4609
:1028E00091461946DDF830A04FF0000203DA05F1F9
:1028F00000431D462D220D9F0A7027F02007462F0A
:1029000004D0452F00D10136022100E0032103ABA2
:10291000019302AB00933246534645EC104BFEF751
:102920008CFD472F804602D119F0010F22D0462F8F
:1029300008EB060911D198F80030302B0AD100229B
:10294000002320462946FFF743FF18B9C6F10106C8
:10295000CAF80060DAF800309944002200232046CB
:102960002946FFF735FF08B1CDF80C903022039BC4
:102970004B4508D3039B0E9AA3EB08034046136014
:1029800004B0BDE8F087591C03911A70EFE7F7B562
:102990000029BABF49422D232B2309290270437015
:1029A00021DD0DF107031F460A2691FBF6F206FB17
:1029B00012143034632903F1FF3503F8014C0ADCAB
:1029C000303205F8012C023B821CBB42144605D371
:1029D000201A03B0F0BD2B461146E6E713F8011BA1
:1029E00002F8011BF1E7302319448370041DC17004
:1029F000EEE72DE9F04F8DB00C46DDF85880164615
:102A00001F46054600F0CCFB03680693184601F00C
:102A100058FE00230A93D8F800300790073323F0BC
:102A2000070303F1080294F818A0D4F800B0C8F81E
:102A30000020D3E90023C4E9122394ED127B8DED2D
:102A4000047BDDE9048323F000494FF0FF32A74BFC
:102A50004046494601F0CEFD70BB4FF0FF32A34B1C
:102A600040464946FFF7C8FE30BB00220023DDE99F
:102A70000401FFF7B7FE10B12D2384F843309C4AC0
:102A80009C4BBAF1470F94BF9046984603232BF016
:102A90000402236122604FF00009009733460BAA1D
:102AA0002146284600F0D0F9013040F08C804FF0EC
:102AB000FF300DB0BDE8F08FDDE904231046194664
:102AC00001F098FD40B1059B8B4A002BBCBF2D2324
:102AD00084F84330894BD4E763685A1C0AF0DF0955
:102AE0003ED106236360002303930AAB4BF480625C
:102AF000CDE901A309AB0093616822600DF12303C6
:102B00009DED040B2846FFF7E5FEB9F1470F80461F
:102B1000099908D1C81C02DB6368994241DDAAF11A
:102B2000020A5FFA8AFABAF1650F20D801395246D3
:102B300004F150000991FFF72AFF0A9A1318012A9D
:102B40008146236102DC2268D20701D5013323616B
:102B50009DF82330002BA0D02D2384F843309CE730
:102B6000B9F1470FBFD1002BBDD10123BAE7BAF1AC
:102B7000660F18D1002963680BDD216113B9226843
:102B8000D00702D501330B442361A1654FF0000942
:102B9000DEE713B92268D20701D50233F4E7012337
:102BA000F2E74FF0670A0A9B994205DB236821612F
:102BB000D807EAD54B1CE7E70029D4BFC1F10202D0
:102BC00001221344E0E723685A0507D423694246EB
:102BD00031462846B84701302BD168E7BAF1650F76
:102BE00040F2DD8000220023D4E91201FFF7F0FD5E
:102BF000002833D00123424A31462846B8470130E5
:102C00003FF455AFDDE909239A4202DB2368D80778
:102C10000FD5DDE9062331462846B84701303FF499
:102C200046AF4FF0000804F11A090A9B013B4345E7
:102C300009DC23689B0700F10281E0680B9B984246
:102C4000B8BF184635E701234A4631462846B847FB
:102C500001303FF42CAF08F10108E6E7099B002B97
:102C60002BDC0123264A31462846B84701303FF481
:102C70001EAFDDE90923134302D12368D907D8D554
:102C8000DDE9062331462846B84701303FF40FAF4F
:102C90004FF0000904F11A0A099B5B424B4501DC25
:102CA0000A9B94E70123524631462846B847013033
:102CB0003FF4FDAE09F10109EEE70A9AA36D9A42CD
:102CC000A8BF1A46002A914607DD13463146424600
:102CD0002846B84701303FF4EAAE04F11A034FF03A
:102CE000000B29EAE979049316E000BFFFFFEF7FAC
:102CF000F07F0008F47F0008F87F0008FC7F0008E0
:102D0000327F00080123049A31462846B847013033
:102D10003FF4CDAE0BF1010BD4F858A0AAEB090398
:102D20005B45EFDCDDE909239A421BDB2368DA0708
:102D300018D4DDE9092392451CDBA3EB0A09B9F19C
:102D4000000F08DD4B4608EB0A0231462846B8471B
:102D500001303FF4ACAE4FF0000829EAE97904F104
:102D60001A0A14E0DDE9062331462846B847013047
:102D7000DFD19CE6A3EB0209E1E70123524631468D
:102D80002846B84701303FF492AE08F10108DDE96A
:102D900009239B1AA3EB09034345EEDC49E70A9A92
:102DA000012A01DCDB0737D501234246314628469C
:102DB000B84701303FF47BAEDDE9062331462846B3
:102DC000B84701303FF473AE00220023D4E912016A
:102DD000FFF7FEFCD8B90A9B08F10102013B31461E
:102DE0002846B84701300ED161E6012352463146EC
:102DF0002846B84701303FF45AAE08F101080A9B53
:102E0000013B4345F1DC4B4604F15002E0E64FF054
:102E1000000804F11A0AF2E701234246DFE7012322
:102E20004A4631462846B84701303FF440AE08F1E3
:102E30000108E3680B9A9B1A4345F0DCFDE64FF06E
:102E4000000804F11909F4E72DE9F04791461F46FF
:102E50008A680B69DDF820809342B8BF1346C9F831
:102E6000003091F8432006460C4612B10133C9F8F0
:102E700000302368990642BFD9F800300233C9F800
:102E80000030256815F0060507D104F1190AE3683A
:102E9000D9F800209B1AAB4228DC94F84330226812
:102EA000003318BF012392062DD404F143023946A2
:102EB0003046C047013020D02368E568D9F80020AB
:102EC00003F00603042B08BFAD1AA36822690CBFE8
:102ED00025EAE57500259342C4BF9B1AED184FF013
:102EE00000091A344D451AD1002008E0012352464A
:102EF00039463046C047013003D14FF0FF30BDE8BE
:102F0000F0870135C3E7E1185A1C302081F84300EF
:102F1000224494F8451082F843100233C5E7012398
:102F2000224639463046C0470130E6D009F1010952
:102F3000D8E72DE9F04306460C4601F14300097E2F
:102F400085B06E29984617460C9B00F0BA8024D8AD
:102F5000632939D00AD8002900F0C380582900F02D
:102F6000918004F1420584F8421035E0642901D0D3
:102F70006929F6D125681A6815F0800F02F104015D
:102F80002CD012681960002A03DA2D23524284F8EB
:102F90004330DFF8C0C10A233FE0732900F0A58069
:102FA00008D86F2921D07029DBD1226842F0200295
:102FB000226003E0752918D07829D2D1782284F8CC
:102FC0004520DFF894C161E01A68111D196013688B
:102FD00084F8423004F14205012393E0126819603D
:102FE00015F0400F18BF12B2CDE7D4F800C01A6830
:102FF0001CF0800F02F104051D6001D0126803E08F
:103000001CF0400FFAD01288DFF848C16F290CBFBE
:1030100008230A23002184F843106568A560002D69
:10302000A2BF216821F0040121600AB9002D46D019
:103030000546B2FBF3F103FB112E93421CF80EE0A0
:1030400005F801ED39D9082B0BD12368DA0708D52B
:10305000236962689A42DEBF302305F8013C05F11E
:10306000FF35401B2061CDF800803B4603AA214676
:103070003046FFF7E9FE013049D14FF0FF3005B08F
:10308000BDE8F083DFF8CCC084F845101D682168E6
:1030900055F8042B1D600D060BD5CD0744BF41F03C
:1030A000200121601AB9236823F020032360102334
:1030B000B0E74B0648BF92B2EFE70A46B9E70546CC
:1030C000C1E71A68D4F800C06169151D1D601CF0C5
:1030D000800F136801D0196003E01CF0400FFAD094
:1030E0001980002323610546BDE71A68111D196088
:1030F0001568626800212846FDF76AF808B1401B90
:10310000606063682361002384F84330ABE7236980
:103110002A4639463046C0470130AED023689B0767
:1031200013D4E068039B9842B8BF1846A7E7012371
:103130004A4639463046C04701309ED00135E368E3
:10314000039A9B1AAB42F2DCEBE7002504F1190964
:10315000F5E700BF00800008118000080EB403B539
:1031600003AB816853F8042B019300F097FC02B085
:103170005DF804EB03B070470FB407B5064904AB24
:10318000086853F8042B8168019300F087FC03B0B2
:103190005DF804EB04B0704740100020F030704739
:1031A00000487047C013002000487047C01300203B
:1031B000C36C70B505460C467BB1EB6C53F824002C
:1031C000A0B9012101FA04F6721D9200284601F00F
:1031D00080FA48B1C0E901460BE02122042101F048
:1031E00078FAE8640028E8D1002070BD026843F84E
:1031F00024200023C0E90333F7E731B1C36C4A68E8
:1032000053F82200086043F8221070472DE9F0417E
:103210000D691F4606460C4601F1140C0023DCF82C
:10322000000081B202FB01710F0C000C02FB007068
:1032300089B2013301EB00419D424FEA10474CF83F
:10324000041BECDCD7B1A368AB4212DC61683046EA
:103250000131FFF7ADFF2269023204F10C01804613
:1032600092000C3001F00DFA21463046FFF7C5FF01
:10327000444604EB850301355F6125612046BDE8C6
:10328000F0812DE9F8430C4615461F460922083304
:10329000064693FBF2F3002101229A4220DB3046DE
:1032A000FFF786FF089B4361092D4FF0010303617F
:1032B00019DD04F10909C8462C4418F8013B014600
:1032C000303B0A223046FFF7A1FFA045F5D1A5F11A
:1032D00008044C442D1B6319BB4207DBBDE8F8838F
:1032E00052000131D9E70A340925F3E714F8013B0C
:1032F0000146303B0A223046FFF788FFEBE7020C1D
:1033000012040346CAB90304102013F07F4F04BF10
:103310001B02083013F0704F04BF1B01043013F080
:10332000404F04BF9B000230002B05DB13F0804FA1
:1033300000F1010008BF202070470020E5E7036886
:1033400013F0070201460BD0DA0724D4980749BFCF
:103350005B089B0801200B605CBF0B60022070477C
:1033600098B2B0B91B0C102013F0FF0F04BF1B0A5A
:1033700008301A0704BF1B0904309A0704BF9B08D2
:103380000230DA0703D45B0800F1010005D00B60BE
:1033900070471046E8E7002070472020704710B5BE
:1033A0000C460121FFF704FF01224461026110BDB8
:1033B0002DE9F74F90460A69D8F810309A42B8BF05
:1033C0000B460C46BCBF444698462769D8F8109077
:1033D000A368616807EB0906B342B8BF0131FFF784
:1033E000E7FE00F1140505EB860E2B46002273451F
:1033F00016D304F1140308F1140203EB870702EB60
:1034000089030093009B019293420CD8002E03DDA8
:103410005EF8043D002B59D0066103B0BDE8F08F83
:1034200043F8042BE3E7B2F800A0BAF1000F23D071
:1034300004F11409AC464FF0000859F8041BDCF8FD
:1034400000B08BB21FFA8BFB0AFB03B34FEA114BA0
:10345000DCF8001043444FEA11480AFB0B8101EBF2
:1034600013419BB243EA01434F454FEA11484CF8E0
:10347000043BE2D8CCF80080019BB3F80290043200
:10348000B9F1000F20D02B6804F11408AC464FF0BE
:10349000000AB8F80010BCF802B009FB01B18A4478
:1034A0009BB243EA0A434CF8043B58F8043BBCF88F
:1034B00000101B0C09FB031303EB1A4347454FEAAB
:1034C000134AE6D8CCF8003004359BE7013E9DE76F
:1034D0002DE9F843154612F0030206460F4607D0C1
:1034E000013A1A4C002354F82220FFF78FFE0746BA
:1034F000AD1027D0B46C44B940F271213046FFF7CB
:103500004EFF0023B064044603604FF00008EB0751
:103510000AD5394622463046FFF74AFF39468146EA
:103520003046FFF76AFE4F466D100BD0206838B961
:10353000224621463046FFF73BFF2060C0F800805E
:103540000446E4E73846BDE8F88300BF307A000857
:103550002DE9F0470C464FEA621A236949680AEBE5
:103560000309A3680746164609F10105AB4233DBA0
:103570003846FFF71DFE0023804600F1140100F1DC
:103580001002184653452ADB20692AEAEA7A04F138
:10359000140316F01F0201EB8A0103EB800C22D00A
:1035A000C2F1200E00201E689640304341F8040B03
:1035B00053F8040B9C4520FA0EF0F4D8086008B1CB
:1035C00009F10205013D3846C8F810502146FFF7C1
:1035D00014FE4046BDE8F08701315B00C6E742F8C3
:1035E000040F0133CEE7043953F8042B41F8042FBC
:1035F0009C45F9D8E6E703690A699B1A30B50CD1F6
:103600009200143014318418114454F8045D51F8B8
:10361000042D954203D005D30123184630BDA042A6
:10362000F3D3FAE74FF0FF33F7E72DE9F0470D4604
:103630000746114628461446FFF7DDFF061E08D14F
:1036400031463846FFF7B4FD0123C0E90436BDE832
:10365000F087A4BF23462C4638466168A6BF1D46A6
:1036600000260126FFF7A4FD2B69C660266905F137
:10367000140904F1140202EB860709EB830800F138
:1036800014054FF0000E52F804AB59F8044B1EFA23
:103690008AF1A3B2C91A230CC3EB1A4303EB2143EB
:1036A00089B24FEA234EC84541EA0343944645F8A0
:1036B000043BE8D8BC4504D355F8043D83B106610A
:1036C000C5E75CF8041B1EFA81F31A1402EB1142E1
:1036D0009BB243EA02434FEA224E45F8043BE9E736
:1036E000013EE9E7114B10EE902A1A40A2F1507307
:1036F000002B04DD0020194641EC100B70475B42A3
:103700001B15132B4FF000004FF0000104DC4FF4A9
:10371000002242FA03F1EFE7143B1E2BDABF4FF011
:10372000004222FA03F301231846E5E70000F07F88
:10373000F8B5056900F1140707EB85052E1F55F84C
:10374000044C2046FFF7DBFDC0F120030A280B6084
:10375000DFF878C014DCC0F10B0E24FA0EF1B7428A
:1037600041EA0C0334BF55F8081C0021153004FA57
:1037700000F021FA0EF140EA010243EC102BF8BDF3
:10378000B7423ABFA5F1080655F8081C00210B38CE
:1037900017D0C0F1200C04FA00F5BE4221FA0CF457
:1037A00045EA04058CBF56F8044C002445F07F53CD
:1037B00001FA00F024FA0CF443F4401340EA040246
:1037C000DBE744EA0C030A46D7E700BF0000F03FFE
:1037D0002DE9F7430E46012159EC108B1546FFF7F2
:1037E000E7FCC9F30A540746C9F313032CBB019342
:1037F000B8F1000326D068460093FFF7A0FD0099BA
:10380000F0B1019AC0F1200302FA03F30B43C24066
:103810007B610192019BBB61002B14BF022101213E
:103820003961C4B1A4F2334404443460C0F13500BA
:103830002860384603B0BDE8F08343F48013D6E730
:103840007961E7E701A8FFF77AFD019B7B61012120
:1038500039612030E5E707EB8103A0F232403060A8
:103860001869FFF74CFDC0EB4110E1E72DE9F74F78
:10387000884669468146FFF75BFF01A9404657EC41
:10388000106BFFF755FFD9F81030D8F81020A3EBD4
:10389000020CDDE900329B1A03EB4C135BEC10AB1E
:1038A000002BCEBF3A46C3EB03335A4659463D463A
:1038B000D4BF02EB035102EB0355304610EE102A41
:1038C0000B462946FEF746FE41EC100B03B0BDE85F
:1038D000F08F1728D0B5044607DC094B03EBC00472
:1038E000D4E9040141EC100BD0BD0649064F00207D
:1038F000002632463B46FEF703FD013CF9D1F1E7D5
:10390000307A00080000F03F00002440013910B573
:1039100049111469013102F1140300EB810103EB39
:103920008404A342024603D300238A4205D310BD78
:1039300053F8042B40F8042BF3E742F8043BF4E778
:1039400000F1140200694B11984210B511DB0ADD39
:1039500011F01F0107D052F8234024FA01F000FAB9
:1039600001F18C420BD102EB8303934203D8002078
:1039700010BD0346F7E753F8041D0029F5D00120D8
:10398000F6E700BFF8B5CE1C26F0030608360C2E6D
:1039900038BF0C26002E074601DBB14203D90C23A9
:1039A0003B600020F8BD214D00F0F5FE2A6814466A
:1039B00094B96B6823B92146384600F071F9686004
:1039C0003146384600F06CF9431C23D10C233B6090
:1039D000384600F0E1FEE4E723689B1B17D40B2B6D
:1039E00003D923601C44266004E06368A2420CBF34
:1039F0002B605360384600F0CFFE04F10B00231D0E
:103A000020F00700C21ACDD01B1AA350CAE72246E5
:103A10006468CDE7C41C24F00304A042E3D0211A5B
:103A2000384600F03DF90130DDD1CFE7000000203D
:103A30009368013B002B10B4936008DA9469A342A9
:103A400001DB0A2903D15DF8044B00F039B9136892
:103A5000581C1060197008465DF8044B7047F8B5A3
:103A600006460F461446D518AC4201D1002007E0A7
:103A70003A4614F8011B3046FFF7DAFF431CF3D136
:103A8000F8BD38B593681446002513B9536018463D
:103A900038BD00F009FBC4E90155F9E72DE9F04F05
:103AA0000E469DB014461D46074618B1836B0BB9F0
:103AB00000F09CFAB389180756D53369002B53D010
:103AC0000023099320238DF82930DFF8AC9103956A
:103AD00030238DF82A304FF0010A23461D4613F893
:103AE000012B0AB1252AF9D1B5EB040B0BD05B46AB
:103AF000224631463846FFF7B2FF013000F0AE8073
:103B0000099B5B4409932B78002B00F0A7800023CE
:103B10004FF0FF32CDE905230135049307938DF86B
:103B200053301A932C46052214F8011B5248FCF717
:103B30004FFB049B18BBD90644BF20228DF85320AD
:103B40001A0744BF2B228DF853202A782A2A1ED028
:103B5000079A2C4600200A25214611F8013B303BEC
:103B6000092B56D9C8B91FE03146384600F0EEF8A7
:103B70000028A5D04FF0FF301DB0BDE8F08FA0EBBE
:103B800009000AFA00F0184304902546CAE7039A90
:103B9000111D12680391002A01DB079204E05242D2
:103BA00043F002030792049323782E2B0CD1637801
:103BB0002A2B33D1039B1A1D1B680392002BB8BF1D
:103BC0004FF0FF33023405932C4D21780322284611
:103BD000FCF7FEFA38B14023401B03FA00F0049BC7
:103BE00003430134049314F8011B25488DF8281071
:103BF0000622FCF7EDFA002835D0224B13BB039BBD
:103C0000073323F0070308330393099B43440993C5
:103C100063E705FB023201200C469DE700230134D7
:103C2000059319460A25204610F8012B303A092A37
:103C300003D9002BC8D00591C6E705FB012101235C
:103C40000446F0E703AB009332460F4B04A9384615
:103C5000FEF7CFFEB0F1FF3F8046D6D1B3895B06B9
:103C600088D4099888E703AB00933246064B04A931
:103C70003846FFF75EF9EDE72F8000083580000831
:103C800039800008F32900085F3A000813460A4605
:103C9000014602480068FFF701BF00BF4010002046
:103CA00038B5064C002305460846236001F01CFD8C
:103CB000431C02D1236803B12B6038BDFC020020F5
:103CC000F8B50D461446064618B1836B0BB900F0E3
:103CD0008DF9A369A360A3891A0725D523691BB3AE
:103CE00023692068C01A6369EDB283422F4604DC61
:103CF0002146304600F010F9E0B9A368013BA3600B
:103D000023685A1C22601D7063690130834204D00D
:103D1000A389DB0706D50A2D04D12146304600F0E1
:103D2000FBF838B93846F8BD2146304600F00EF8A9
:103D30000028D5D04FF0FF37F4E7034B0A46014681
:103D40001868FFF7BDBF00BF4010002038B52A4BF0
:103D5000054618680C4618B1836B0BB900F046F99C
:103D6000B4F90C309AB2110722D4D00607D4092234
:103D70002A6043F04003A3814FF0FF3034E0510745
:103D800012D5216B41B104F14003994202D028467B
:103D900000F062FB00232363A38923F02403A381A3
:103DA0000023636023692360A38943F00803A38190
:103DB00023694BB9A38903F42073B3F5007F03D0C3
:103DC0002146284600F0EBFAA28912F001030CD03C
:103DD0000023A36063695B42A361236953B9B4F90B
:103DE0000C3013F08000C4D138BD920758BF63690E
:103DF000A360F2E70020F7E740100020B1F90C20A3
:103E000093B22DE9F041054618070C465FD44B6884
:103E100042F40062002B8A8105DCCB6B002B02DCB4
:103E20000020BDE8F081A66A002EF9D0002312F42C
:103E300080522F682B6036D0206DA3895A0705D594
:103E40006368C01A236B0BB1E36BC01A00230246F0
:103E5000A66AE1692846B047431CA38906D12968B0
:103E60001D2930D82B4ACA40D6072CD523F400632D
:103E70001BB200226260D9042269A381226004D5AA
:103E8000421C01D12B6803B92065216B2F600029EA
:103E9000C6D004F14003994202D0284600F0DCFA73
:103EA00000202063BDE7E16901232846B047411C9B
:103EB000C3D12B68002BC0D01D2B01D0162B01D1F4
:103EC0002F60ADE7A38943F04003A381A9E70F6901
:103ED000002FA5D09B070E6808BF4B690F6018BF65
:103EE0000023A6EB07088B60B8F1000F98DD43466E
:103EF0003A46E169666A2846B047002806DCA3898D
:103F000043F04003A3814FF0FF308AE70744A8EB5A
:103F10000008E9E70100402038B50D46044618B115
:103F2000836B0BB900F062F8B5F90C0028B1294693
:103F30002046BDE83840FFF761BF38BD014620B9D3
:103F4000044B0549186800F0EEBB044B1868FFF7F6
:103F5000E3BF00BFE87C0008193F000840100020C4
:103F6000002310B50446C0E90033836081810366F5
:103F7000C281C0E90433836119460822583000F039
:103F80008EFB054B2362054B6362054BA362054B19
:103F9000E461E36210BD00BFE74700080D48000878
:103FA0004548000869480008014900F0BCBB00BF53
:103FB000193F000870B54A1E642555430E4605F1A9
:103FC0007001FFF7DFFC044640B10021C0E9001694
:103FD0000C30A06005F1640200F061FB204670BD6A
:103FE000014B1868FFF7E0BFE87C0008826B10B552
:103FF0000446D2B90D4BC3630323C0F8503100F51A
:10400000AC73C0F85431C0F84C2104214068FFF76C
:10401000A7FF01220921A068FFF7A2FF02221221B7
:10402000E068FFF79DFF0123A36310BDA93F0008CF
:10403000F8B51B4B1E68B36B074613B93046FFF744
:10404000D5FF06F5A676D6E90134013B03D53368E2
:10405000DBB13668F7E7B4F90C50A5B9114B25660A
:10406000C4E90055A560C4E90335C4E90555082233
:10407000294604F1580000F012FBC4E90C55C4E9CC
:1040800011552046F8BD6434DFE704213846FFF7B8
:1040900091FF044630600028DBD10C233B60F0E741
:1040A000E87C00080100FFFF93682DE9F74F074601
:1040B0000C4690461BB9002003B0BDE8F08F8B89F9
:1040C000180750D50B69002B4DD0A389D8F8006094
:1040D00013F002096CD113F0010300F09C804846F4
:1040E000CA46CB46BBF1000F00F0068150B95A46D4
:1040F0000A215046FCF76CF8002800F002810130DC
:10410000A0EB0A09206821696269D9454B4628BF9E
:104110005B46884240F2F880A5681544AB4240F304
:10412000F38051462A4600F01CFB23682B44236091
:1041300021463846FFF7F0FE002867D1B9EB0509A4
:1041400040F0FC8021463846FFF7E6FE00285DD1AE
:10415000D8F80830AA44ABEB050B5D1BC8F8085033
:10416000002DBFD1A7E721463846FFF7EFFD002815
:10417000ABD04FF0FF309FE7D6E900A90836B9F180
:10418000000FF9D0D9454B46524628BF5B46E1693E
:10419000656A3846A847002838DDD8F808308244D8
:1041A000A9EB0009181AC8F808000028E7D182E72F
:1041B0004FF0000AD146DFF88CB1E0E7D6E9009A6B
:1041C0000836BAF1000FF9D0A289A36820689105DA
:1041D00064D5534536D812F4906F33D021696569A0
:1041E000A0EB010B05EB450505EBD5750BF10103C4
:1041F00053446D109D4238BF1D4653053ED5294698
:104200003846FFF7BFFB48B90C233B60A38943F056
:104210004003A381ADE799469A46D2E75A46216901
:10422000019000F02EFAA289019B22F4906242F0E4
:104230008002A281236165615B44A5EB0B052360CD
:10424000A5605346534528BF53461A464946206841
:10425000019300F086FAA268019BD21AA26022683C
:10426000134455462360D8F80830A944AAEB050A40
:104270005D1BC8F80850002DA3D11CE72A4638461C
:1042800000F08BFA03460028D4D12169384600F0AB
:10429000E3F8A38923F08003A381B5E72269824272
:1042A00002D36269524516D9534528BF53461A4670
:1042B00049461D4600F055FAA36822685B1B2A4454
:1042C000A3602260002BCED121463846FFF724FEA2
:1042D0000028C8D09AE71A4B656AE1699A4594BFED
:1042E00053466FF00043384693FBF2F353434A467C
:1042F000A847051EB7DC89E7D6E900AB00200836E1
:10430000F0E60BF10109FDE69A4209DC656AE16914
:10431000134638465246A847051E3FF70FAF75E7CC
:104320001A465146019300F01CFA019BA268D21A6A
:10433000A26022681A4422601D46FFE6012007E7BA
:10434000FEFFFF7F00FCFF7F70B50E46B1F90E1037
:10435000002996B014461D4609DAB389002213F0ED
:1043600080002A6016D14FF48063236015E06A460E
:1043700000F0FAF80028F0DB019A02F47042A2F58E
:1043800000535A425A414FF480632A604FF4006050
:10439000236002E040232360104616B070BD8B8975
:1043A00073B59D0706460C4607D504F14303236009
:1043B00023610123636102B070BD01AB6A46FFF760
:1043C000C3FF009905463046FFF7DCFA48B9B4F957
:1043D0000C309A05EFD423F0030343F00203A381CA
:1043E000E3E70E4BF363A389206043F08003A381CE
:1043F000009B6361019B20615BB1B4F90E103046F4
:1044000000F0C4F828B1A38923F0030343F00103AB
:10441000A381A3891D43A581CDE700BFA93F000863
:1044200010B4034CD4F8E440A4465DF8044B604754
:10443000D012002082B001B901A942B14BB113786A
:104440000B601278101C18BF012002B07047104694
:10445000FBE76FF00100F8E738B50546002945D0C5
:1044600051F8043C0C1F002BB8BFE41800F093F97E
:104470001F4A1368104633B9636014602846BDE8CC
:10448000384000F089B9A3420CD9216862189342E0
:1044900004BF1A685B68636004BF5218226004603E
:1044A000ECE713465A680AB1A242FAD919685818BB
:1044B000A0420BD120680144581882421960DDD116
:1044C000106852685A6001441960D7E702D90C237A
:1044D0002B60D3E7206821188A4204BF1168526814
:1044E000626004BF091821605C60C7E738BD00BF87
:1044F0000000002010B4034CD4F8E040A4465DF85E
:10450000044B6047D012002049B1FF2A85BF8A239F
:1045100003600A704FF0FF3098BF012070470846D3
:10452000704700BF38B5074C0546084611460022C3
:1045300022601A4602F0B1FC431C02D1236803B189
:104540002B6038BDFC02002038B5064C0023054620
:104550000846236002F0A5FC431C02D1236803B186
:104560002B6038BDFC02002038B5074C00230546FF
:1045700008461146236002F09BFC431C02D12368CD
:1045800003B12B6038BD00BFFC02002038B5064CDB
:10459000002305460846236002F088FC431C02D134
:1045A000236803B12B6038BDFC02002038B5074CEE
:1045B000054608461146002222601A4602F074FCA5
:1045C000431C02D1236803B12B6038BDFC020020DC
:1045D00038B5074C054608461146002222601A46A7
:1045E00002F057FC431C02D1236803B12B6038BD95
:1045F000FC0200204FEA410C7FEA6C5C02D150EAD9
:10460000013C0AD14FEA430C7FEA6C5C02D152EACA
:10461000033C02D14FF0000070474FF0010070479B
:104620004FEA410212F5001215D211D56FF47873DA
:10463000B3EB625212D94FEAC12343F0004343EA7D
:10464000505311F0004F23FA02F018BF4042704758
:104650004FF00000704750EA013005D111F00040E2
:1046600008BF6FF0004070474FF00000704700BF78
:1046700051EC100B10EE102A21F0004343EC102BEC
:1046800070470A44914200F1FF3300D1704710B5E2
:1046900011F8014B03F8014F9142F9D110BD0244CA
:1046A0000346934200D1704703F8011BF9E710F865
:1046B000012B11F8013B012A28BF9A42F7D0D01AEA
:1046C0007047034613F8012B002AFBD1181A013852
:1046D000704738B502FB01F42146FFF753F9054650
:1046E00018B122460021FFF7DAFF284638BD2DE930
:1046F000F041884600F5A674002614B93046BDE89E
:10470000F081D4E90175013F01D52468F5E7AB8953
:10471000012B06D9B5F90E30013302D02846C04727
:1047200006436435EFE72DE9F8438046894600F5F6
:10473000A674002614B93046BDE8F883D4E90175A3
:10474000013F01D52468F5E7AB89012B07D9B5F9FD
:104750000E30013303D029464046C847064364352E
:10476000EEE7884210B501EB020302D983421C46F2
:1047700007D8421E994208D011F8014B02F8014FA8
:10478000F8E783189A1A9A4200D110BD14F8011D57
:1047900003F8011DF7E770477047F8B50746144660
:1047A0000E4621B91146BDE8F840FFF7EBB822B933
:1047B000FFF752FE25462846F8BD00F059F8A04202
:1047C0000FD221463846FFF7DDF805460028F2D023
:1047D00031462246FFF755FF31463846FFF73CFE8B
:1047E000E9E73546E7E710B50C46B1F90E10FFF7DB
:1047F000EFFE0028ABBF236DA3891B1823F4805361
:10480000ACBF2365A38110BD002070472DE9F041A6
:104810001F468B89DB0505460C46164605D5022347
:104820000022B1F90E10FFF7C1FEA389B4F90E10F2
:1048300023F48053A38132463B462846BDE8F0412D
:10484000FFF770BE10B50C46B1F90E10FFF7AEFEC3
:10485000431CA38915BF206523F4805343F4805380
:10486000A38118BFA38110BDB1F90E10FFF76CBE74
:1048700051F8043C181F002BBCBF0B58C0187047E0
:104880002DE9F04FDFED427ADFF814B12DED028B08
:1048900060EE277A8DB0044617EE900AFDF7D8FC3B
:1048A00041EC100B41EC180BFBF7E2FC51EC100B48
:1048B000FDF7C0FFB0EE480AF0EE680A0390FBF780
:1048C00027FD51EC100BFDF7B5FFB0EE480AF0EEF6
:1048D000680A304B059380F000400490FBF718FD08
:1048E00051EC100BFDF7A6FFB0EE480AF0EE680A97
:1048F0000690FBF7BDFC51EC100BFDF79BFF264B20
:104900000893002309930A934FF07E530B939FED76
:104910001E8B0023CDE900340123079002930DF193
:104920000C08032557EC186BEA46C1460324FAEC41
:10493000017AB9EC017AF8EEE77A013C67EE877A02
:1049400017EE900AFDF784FC02460B4630463946C6
:10495000FDF720FB024606460B4610480F46FEF7C1
:104960000BFC14F0FF04E2D1013D15F0FF05EBE86C
:10497000026708F10C08D5D10DB0BDEC028BBDE883
:10498000F08F00BFAFF300800000000000000000C7
:1049900035FA8E3C0000A04000004040237F000814
:1049A000401400200000000073B59FED130BFBF7CF
:1049B000AFFC53EC102B1248124D134ECDE90023DF
:1049C00002F0C2F9DDE900231048FEF7D5FBB3EE93
:1049D0000E0A0320FFF754FF0324F5E802233046B4
:1049E000013CFEF7C9FB14F0FF04F6D1084802B001
:1049F000BDE8704002F0A8B90000004052C1E03F9D
:104A00000A7F000840140020187F0008147F000867
:104A10001E7F00080B6801330B60014B1B681847B1
:104A2000581400202DE9F04F85B09B460E9CDFF80E
:104A30008890012CB8BF0124012B0CBF3023202308
:104A4000164682468846029301250A270022B6FBB5
:104A5000F9F301930AB9B1451DD8019B414603F111
:104A60003000D04701350122019B013F012F09FB96
:104A700013664FF00A03B9FBF3F9E8D1414606F19A
:104A80003000D047BBF1030F02D1641B002C0EDCB9
:104A900005B0BDE8F08FBC42E6DBBBF1020FE3D806
:104AA0004146029803920135D047039ADCE741461C
:104AB0002020D047013CE9E700CA9A3B014B18602F
:104AC000704700BF5814002007B500230193024629
:104AD0000B46034801A901F0C7FF03B05DF804FBD2
:104AE000154A00084FF01002EFF3118382F311888A
:104AF000BFF36F8F83F31188BFF36F8F024B034AAD
:104B00001A600020704700BF801400200024F400C9
:104B10000A2838B50446074D04D1286843680D219A
:104B20005B68984728684368E1B25B68984720460D
:104B300038BD00BF1000002010B5044C204600F026
:104B4000A1FD2046BDE81040FFF7B8BF114B00089B
:104B500008B5044801F0A8FA034B1860FFF7ECFF12
:104B6000002008BD3A7F0008100000202DE9F8431E
:104B700095680D4E04460F464FF0010805F10409F3
:104B8000BC4201DBBDE8F883726908FA04F333EA3A
:104B9000020207D1736155F834301BB159F8341053
:104BA000204698470134EBE7003C01401F2808B538
:104BB00002DD6FF0850008BD064A012311688340BD
:104BC0000B4316281360F4DC034B185600F0BEFAB2
:104BD0000020F0E7003C0140417F00081F2806DC70
:104BE000034901220B68824023EA02030B607047ED
:104BF000003C0140CA0710B507D51F2805DC084B4B
:104C000001229C68824022439A608B0707D51F28A7
:104C100005DC034A0123D16883400B43D36010BDF8
:104C2000003C0140074930B58C6854F8301004EB63
:104C3000C00521B944F830206B60084630BD6FF0E4
:104C40000F00FBE7C8140020044B9A6802EBC00178
:104C5000002342F830304B60704700BFC81400207A
:104C60000B6884B0032B2DD8DFE803F0020E182266
:104C7000164A4B68116B19431163126B1340009372
:104C8000009B002004B07047104A4B68516B1943D9
:104C90005163526B13400193019BF2E70B4A4B683F
:104CA000116C19431164126C13400293029BE8E7E4
:104CB000064A4B68516C19435164526C134003937C
:104CC000039BDEE76FF08500DCE700BF00380240A1
:104CD0000B68032B20D8DFE803F0020A1118104AF2
:104CE0004968136B23EA01031363002070470C4AE1
:104CF0004968536B23EA01035363F6E7084A49689E
:104D0000136C23EA01031364EFE7054A4968536C07
:104D100023EA01035364E8E76FF08500704700BFA2
:104D200000380240074B09681B68032907D8DFE8F1
:104D300001F0030302035B081360002070476FF06B
:104D4000850070478014002030B587B000234FF4F1
:104D50008052CDE90032029300F038F803A802F047
:104D600072F8184B1A68910706D41A6842F00102CB
:104D70001A601A689207FCD5124CA36823F003034B
:104D8000A360A36823F0F003A360A56815F00C05E9
:104D9000FBD123680C4823F080732360636823F001
:104DA000706343F00063636003AA6B46012101F066
:104DB0002BF9236823F00103236002F04DF8284605
:104DC00007B030BD0038024000127A00064B1A6C62
:104DD00042F080521A641B6C82B003F0805301933E
:104DE000019B02B0704700BF0038024073B5044613
:104DF00006090D46104612B9114801F055F9002375
:104E00000093104B53F826300193013302D16FF019
:104E1000040012E0436869461B6898470028F6D1F1
:104E20002011800200F1804005F00F032A4604F0B3
:104E30000F0100F5003002F0DBF802B070BD00BFDA
:104E4000637F0008107E0008F8B504460E46094846
:104E500001F02AF900250746B54204F1080400D103
:104E6000F8BD3A4654F8041C14F8080CFFF7BEFFCE
:104E70000135F1E7637F00080F4B30B51A68996878
:104E80001D680E4B1C680E4B12F48032186818BF58
:104E9000224621F07F41024408291A6007D915F4FF
:104EA000803F1A6814BF2046002002441A60186828
:104EB0002044401A30BD00BF10E000E0D4000020C4
:104EC000D800002008B50E4A0E4B1268186810442E
:104ED0000D4A186011684FF41653401AB0FBF3F0F6
:104EE00003FB00131360094B1A68094B1A60002278
:104EF0001A6001F0EFFCBDE8084000F097B800BF71
:104F0000D4000020D0000020CC00002010E000E001
:104F1000D8000020094B102283F82320084B42F2CE
:104F20007F521A60074B00201860074B5A60986048
:104F30001A6842F007021A60704700BF00ED00E0F7
:104F4000D4000020D800002010E000E070B5234C11
:104F500051B1431C08D1224A136823F001031360A6
:104F60004FF07F43236070BD013840F2D263984216
:104F70002EDC00282EDD4FF4165303FB00F64FF015
:104F80001003EFF3118583F31188BFF36F8FFFF7E1
:104F900073FF144B1A6810441860134B1A68C2F55B
:104FA00015533F3333444FF416510344101AB3FBE7
:104FB000F1F301FB03000D4B206000221A60084B47
:104FC000013858609A6085F31188BFF36F8FCAE784
:104FD0001846D0E74FF48066D1E700BFD400002028
:104FE00010E000E0D0000020CC000020D80000201D
:104FF00010B54FF01003EFF3118483F31188BFF362
:105000006F8FFFF739FF074B074A1B6812689B1A1F
:10501000184484F31188BFF36F8F4FF41653B0FB1D
:10502000F3F010BDD0000020CC00002004488168BF
:10503000006A884203D003494FF080520A607047EB
:10504000B802002004ED00E0094A0A4993680968A3
:105050009966094958664B6843F080534B600023BA
:1050600083F31188BFF36F8F9368986E704700BF0A
:10507000B8020020007F000800ED00E029498A689E
:105080004FF028001044EFF3098C80E8F01F4FF038
:1050900010001EEA000F04D0D2F8AC0020F004008B
:1050A00007E002F16C0080EC108AD2F8AC0050F0FE
:1050B0000400C2F8AC00102080F31188BFF36F8F9A
:1050C000194F4FF000660A6A8A603E60506E0023F6
:1050D000536680F31188D2F8AC0010F0040F05D1AC
:1050E0000023E1EE103A5EF0100E05E02EF0100EF7
:1050F00002F16C0090EC108AEFF3148323F00403A8
:1051000083F31488BFF36F8F04B5104601F0B4FE2B
:10511000BDE8044002F1280090E8F01F8CF30988F4
:1051200070470000B802002004ED00E01EF0040FFC
:105130000CBFEFF30880EFF30980816911F8021CBE
:105140000229FFD001B501F08CFE01BD43B2002B56
:1051500008DB012200F01F0002FA00F05B09024A9E
:1051600042F82300704700BF00E100E043B2002B8B
:10517000A8BF03F1604301F101014FEA0111AEBF85
:1051800003F5614300F00F00034BC9B2ACBF83F8D5
:1051900000131954704700BF14ED00E073B51E46AC
:1051A0000A9B00938C18099B054602F0BDF9A4F1F7
:1051B00020030B4A23F0070322F001029A61069AAA
:1051C0005A60079A9A60089ADA604FF080721E60FF
:1051D000DA61AB6400236B66C5F8AC3002B070BD19
:1051E000356A00082DE9F0411F4606460C469046F8
:1051F0000023E1EE103AEFF3148525F0040585F362
:105200001488BFF36F8F00F07DF90A4B4444304699
:105210009E6024F0070401F02FFE384684F30988CD
:10522000002163B681F31188BFF36F8F0022002342
:1052300001F000FCB8020020014910220A6070470A
:1052400010ED00E0404080F3118830BF704700BF90
:10525000EFF30880EFF30981724601B500F0A4F87E
:1052600001BD00BF30BFFFF7FDBF00BF114A08B549
:10527000114B22F07F029A60BFF34F8FBFF36F8F05
:10528000D3F8882042F4A002C3F888204FF04042AF
:10529000C3F83422BFF34F8FBFF36F8F0023E1EECB
:1052A000103A00F027FF00F02FFF00F0F9F800F0AF
:1052B0005DFF00BF0000000800ED00E001B5EFF366
:1052C0000580A0F110004FEAC0000449014409C95B
:1052D0009847BDE8014002490847000030760008C1
:1052E0002D500008102080F3118808484FF4006109
:1052F000401880F30988EFF314800221084380F3FB
:105300001488BFF36F8FFFF7B1FF00004008002043
:105310000C4B9A6A9A6A9A6A920708D55A6B9A6AEB
:10532000120604D518B19A6A22F080029A62054BDF
:105330009A6A9A6A9A6A9A6A002042F0FF029A620E
:105340000870704700ED00E00D4B9A6A9A6A9A6AFD
:10535000920508D59A6B9A6A120404D518B19A6A14
:1053600022F400429A62064B9A6A9A6AD20558BFA2
:105370009A6A9A6A002042F47F429A6208707047E3
:1053800000ED00E0074B9A6A9A6A9A6A9A6A9A6AEA
:105390009A6A9A6A6FEA02426FEA12429A6200209F
:1053A000704700BF00ED00E070B5364B5B689CB005
:1053B000C3F30803002585F31188BFF36F8F02F054
:1053C0007F44B4F17F4F12D102F00C04082C0ED0B0
:1053D00014074EBF0E46064601250022033B8DF8FA
:1053E0000720032B47D8DFE803F0043E423B2E465C
:1053F000F3E7244BDA6A92073DD4DC6A14F0804468
:1054000008D028331B78EBB10DF107010120FFF71D
:105410007FFF04469DF8073093B96822314602A801
:10542000FFF72FF9099B45B3C3F3080222B96FEACE
:1054300053236FEA4323099302A9204601F00FFD8D
:105440001CB070BD104B1B782BB10DF10701012072
:10545000FFF77AFFDDE70D4B1C88A4B2002CD9D0F2
:10546000FFF790FFD5E70DF107010020CFE70DF121
:1054700007010020ECE70024CCE723F4FF7323F0BE
:105480000103D8E700ED00E029ED00E02AED00E09F
:10549000024A536943F010035361704700ED00E086
:1054A000044800231021C2180133612B82F8001335
:1054B000F9D1704700E100E038B505464FF0100320
:1054C000EFF3118483F31188BFF36F8F02F03BF881
:1054D0000A4B9B68AB420BD1094B5A68C2F30802D6
:1054E00012B92046FFF7B0FD5A6842F080525A6068
:1054F0002046BDE8384001F094BF00BFB80200204C
:1055000000ED00E01FB5084B0193084B0293084BD8
:10551000039301AB0093074A074B0121684600F053
:1055200091F805B05DF804FB0000002000000000C9
:1055300000000B060000002000000220F0B5204F04
:1055400000268E4201DB1046F0BD50F826C0DCF884
:10555000044094B35BB104F1FF3E14EA0E0F1AD17C
:105560001F2C18D9DCF800501EEA050F13D1202C8F
:10557000DCF80050DCF808C0D2B20FD9B4F1004F0B
:105580000ED8013CB4FA84F4C4F11F046400072A65
:105590004CEA040406D96FF01502D4E70824F6E7B4
:1055A0003E24F4E725F01F05154345F0100544F0AF
:1055B0000104BA60FD6001323C610136C1E700BF01
:1055C00090ED00E0034B05225A60BFF34F8FBFF30D
:1055D0006F8F704790ED00E0BFF35F8F014B0022AB
:1055E0005A60704790ED00E013490868082810B52C
:1055F0001ED8FFF7F1FF114C49680022904201F1DB
:105600000C0105D10E4B1870FFF7DCFF002010BD18
:10561000A26051F80C3C23F01F03134343F0100326
:10562000E36051F8043C43F0010323610132E5E7F4
:105630004FF0FF30EBE700BFF07D000890ED00E099
:10564000F802002010B5034C01232278FFF776FF03
:10565000207010BDF802002008B5084A0023127817
:10566000FFF76CFF10F1160F03D0054B002207283F
:1056700000DD08BD98601A610130F8E7F8020020EB
:1056800090ED00E0014B1860704700BF74140020DB
:10569000F8B5084F06460D460024AC4208DA3B68D0
:1056A00098470A28305504F1010401D00D28F4D19F
:1056B0002046F8BD70140020F8B50A4F0E46441E6F
:1056C000C0F101052B199E4201DC3046F8BD63781C
:1056D0000A2B02D13B680D2098473B6814F8010F54
:1056E0009847EFE77414002038B54FF0FF310546B6
:1056F0000A4801F090F90A4A0A4914680748C1F1BA
:105700000053254403F500339D4236BF64184FF023
:10571000FF34156001F07AF9204638BD34150020B9
:10572000DC0000205815002008B503210248FFF7CF
:105730008BFB002008BD00BF3C7E0008036810B54D
:105740009C68064800F0B0FC436804F108011B683F
:105750009847002818BF6FF0040010BD637F000851
:105760002DE9FF411D4603689F6805F080030B4348
:105770008046144605D06FF08506304604B0BDE87B
:10578000F08101A9284601F016FC06460028F4D154
:105790000346019A3868214601F02AFC10B16FF0E7
:1057A0000406EAE715F00206796851D04346414AFB
:1057B0002046FFF737FA002878D17E683E4800F08F
:1057C00073FC3E49024603C902AB83E803005168FB
:1057D00010460F681946B8470F2C24DC624202F0CD
:1057E000030204F0030358BF534204339A00002C11
:1057F0004FF00F0303FA02F32246B8BFE21C43EA5C
:10580000A203DAB2920002F1804202F59C321B0C34
:10581000916821EA030193FAA3F3B3FA83F306FA3A
:1058200003F30B439360AA06A5D56B060ED415F0BF
:10583000040F14BF012102212046FFF7DBF92046A7
:10584000FFF7B4F90028AAD1002696E70321F3E771
:105850000F2C28DC634203F0030304F0030258BF5B
:105860005A4204329300002C4FF00F0202FA03F266
:105870002346B8BFE31C42EAA302D3B21048023366
:10588000120C50F82330134092FAA2F2B2FA82F2CC
:1058900023FA02F29142D7D12046FFF79FF9204622
:1058A000FFF7D2F969E76FF01502F3E76FF00F0623
:1058B00063E700BFBB6E0008637F0008587B0008E9
:1058C00000380140F0B51F4689B08668A2B39A42FD
:1058D00032D303689B6801F180441968334B013C63
:1058E00099424FEA84045ED0B1F1804F27D030480E
:1058F00021F40063834253D021F4805500F5806089
:1059000085424DD021F4806500F50060854247D086
:1059100021F4804500F57440854241D000F5705077
:1059200083423DD0234B99423DD003F58063994299
:1059300039D06FF0850031E06FF015002EE084B1B2
:1059400024F00803042B03D0082C01D03C2CF0D108
:10595000B1F1804F05D0184B994202D0B2F5803F8B
:10596000E7D80025336C3160013A7360F26035612D
:10597000B5607561304601F080FC602301A92246C4
:10598000304601930395CDE90455CDE906550297BC
:1059900001F08DFC2146304601F0F9FC09B0F0BD64
:1059A000002CCDD1D7E7002CCAD1D7E700000140A9
:1059B00000040040001C0040000C004038B50368A3
:1059C00085689C68064800F06FFB436868641B6844
:1059D000211D9847002818BF6FF0040038BD00BF94
:1059E000637F00082DE9F84303680A799B6886689D
:1059F0001C68012A0D4675D0022A0CBF4FF4806145
:105A0000002195F8058095F80690EF79B8F1020F1E
:105A100096BF374B4FF4005E33F818E0B9F1040F2E
:105A20000CBF4FF480530023033A012F14BF4FF0F3
:105A3000000C4FF4407C012A57D918F0FD0F54D0C8
:105A4000B9F1020F51D987B12A4A94420BD0A2F57D
:105A50004C42944207D002F58062944203D002F592
:105A60004C42944241D1012F3FD1E26822F40052CE
:105A7000E260E26802F4C06291421FBFE76827F467
:105A8000C0670F43E760226902F4405296451FBF8A
:105A9000216921F4405141EA0E012161E26829683F
:105AA00002F4805293421FBFE26822F480521A43EC
:105AB000E260636903F440739C451FBF636923F48C
:105AC000407343EA0C0363613368994203D001F0E9
