:020000040800F2
:1000000050070020E13C00087B5A00084D3C0008E6
:100010004D3C00084D3C00084D3C00084D3C00089C
:100020004D3C00084D3C00084D3C0008293B0008B1
:100030004D3C00084D3C0008793A0008953800080E
:10004000B93C0008B93C0008B93C0008B93C0008BC
:10005000B93C0008B93C0008B93C0008B93C0008AC
:10006000B93C0008B93C0008B93C0008B93C00089C
:10007000B93C0008B93C0008B93C0008B93C00088C
:10008000B93C0008B93C0008B93C0008B93C00087C
:10009000B93C0008B93C0008B93C0008B93C00086C
:1000A000B93C0008B93C0008B93C0008B93C00085C
:1000B000B93C0008B93C0008B93C0008B93C00084C
:1000C000B93C0008B93C0008B93C0008B93C00083C
:1000D000B93C0008B93C0008B93C0008B93C00082C
:1000E000B93C0008B93C0008B93C0008B93C00081C
:1000F000B93C0008B93C0008B93C0008B93C00080C
:10010000B93C0008B93C0008B93C0008B93C0008FB
:10011000B93C0008B93C0008B93C0008B93C0008EB
:10012000B93C0008B93C0008B93C0008B93C0008DB
:10013000B93C0008B93C0008B93C0008B93C0008CB
:10014000B93C0008B93C0008B93C0008B93C0008BB
:10015000B93C0008B93C0008B93C0008B93C0008AB
:10016000B93C0008B93C0008B93C0008B93C00089B
:10017000B93C0008B93C0008B93C0008B93C00088B
:10018000B93C0008B93C0008B93C0008B93C00087B
:10019000B93C0008B93C0008B93C0008B93C00086B
:1001A000B93C0008B93C0008B93C0008B93C00085B
:1001B000B93C0008B93C0008B93C0008B93C00084B
:0401C000B93C00083E
:0C01C400FFFFFFFFFFFFFFFFFFFFFFFF3B
:1001D00001F0FF01102A2BDB10F0070F08D010F8F8
:1001E000013B013A8B422DD010F0070F42B3F6D1FC
:1001F000F0B441EA012141EA014122F007047FF015
:1002000000070023F0E80256083C85EA010586EA6B
:10021000010685FA47F5A3FA87F586FA47F6A5FAA7
:1002200087F68EB9EED1F0BC01F0FF0102F00702B3
:1002300032B110F8013B013A83EA010313B1F8D15E
:100240000020704701387047002D06BF354603383F
:10025000073815F0010F07D1013015F4807F02BF78
:10026000013015F4C03F0130F0BC0138704700BFC9
:100270002DE9F74F03690C69A34280467FDB013CFF
:1002800001F11407A00008F114052B18019357F889
:10029000243055F8242001339A4207EB0009B2FBC1
:1002A000F3F631D34FF0000ABC46AE46D3465CF8B5
:1002B000042B93B206FB03A34FEA134A9BB2ABEBAA
:1002C0000303120CDEF800B006FB02A213FA8BF354
:1002D0004FEA124A1FFA82FBDEF80020CBEB1242F3
:1002E00002EB23429BB243EA0243E1454FEA224B31
:1002F0004EF8043BDBD22B5833B9019B043B9D42A3
:100300001A4630D3C8F81040404602F0C2F8002820
:1003100025DB013628464FF0000C57F8042BD0F8A7
:1003200000E093B2ACEB0303120C13FA8EF3C2EBB2
:100330001E4202EB23429BB243EA0243B9454FEA15
:10034000224C40F8043BE8D255F8242005EB840306
:100350002AB9043B9D421A460BD3C8F810403046D8
:1003600003B0BDE8F08F1268043B002ACAD1013CFB
:10037000C5E71268043B002AEFD1013CEAE7002000
:10038000EEE72DE9F04F99B055EC104B0891016C58
:100390000D9283461493229ECDE9004549B1426CEB
:1003A0004A60012393408B6001F075FE0023CBF877
:1003B00040302B1EB9BF23F000430193002333606C
:1003C000019CB34BBCBF01223260A3431AD1149AE3
:1003D00042F20F731360009AC4F31303134300F047
:1003E0004E85239B0BB9AB4B23E0AA4B03930333FE
:1003F000239A1360039819B0BDE8F08FA64B0393BE
:100400000833F5E79DED007B0022002351EC170B2C
:100410008DED0E7B01F080F9074660B1149A01233F
:100420001360239B002B00F027859C4B239A1360BD
:10043000013B0393DEE716AA17A99DED0E0B584664
:1004400002F014F9C4F30A568046002E7FD00F9BA9
:100450001597C3F31303DDE90E4543F07F5545F4CB
:100460004015A6F2FF3600228D4B2046294600F0AB
:1004700033FD81A3D3E9002300F0E6FE80A3D3E996
:10048000002300F02BFD044630460D4600F072FEBE
:100490007DA3D3E9002300F0D7FE02460B46204699
:1004A000294600F01BFD04460D4602F069FA0022C1
:1004B000824600232046294601F038F948B15046CB
:1004C00000F058FE22462B4601F026F908B90AF141
:1004D000FF3ABAF1160F59D8724B03EBCA03D3E9AE
:1004E0000023DDE90E0101F021F9002850D00AF1C6
:1004F000FF3A00231193169B9E1B731E079345BF63
:10050000C6F101030693002300234CBF0793069313
:10051000BAF1000F3EDB079BCDF840A05344079390
:1005200000230993089B092B00F28D80052BC4BF83
:10053000043B0893089BA3F10203CCBF00240124D1
:10054000032B00F28B80DFE803F02F3C3A7CDDE9DF
:1005500016631E4406F23240202811DDC0F140002F
:10056000009B844006F2124023FA00F0204300F082
:10057000F1FD01230446A1F1F875013E159372E7E0
:10058000009BC0F1200003FA00F0F0E70123B1E77F
:100590001190B0E7069BA3EB0A030693CAF1000390
:1005A000099300231093BDE700230C930D9B002BB0
:1005B00057DC0123049399461A460D920CE001235F
:1005C000F3E700230C930D9B534403F101090493BB
:1005D0004B46012BB8BF01230022CBF84420042254
:1005E00002F114009842DBF844103ED9584601F05D
:1005F0002DFDB9F10E0F0390CBF8400000F2D7802B
:10060000002C00F0D480BAF1000F69DD254A0AF011
:100610000F0302EBC30393ED007B4FEA2A14E206BB
:100620008DED0A7B5AD5204BDDE90E01D3E9082375
:1006300000F034FFCDE9000104F00F0403261A4D49
:1006400041E00123BEE70124002308930C944FF0FE
:10065000FF330493994600221223AEE701230C9343
:10066000F5E70D9B04939946B6E70131CBF84410AA
:100670005200B5E7AFF3008061436F63A787D23FB5
:10068000B3C8608B288AC63FFB799F501344D33F81
:100690000000F07FDE6A0008E26A0008016A0008D4
:1006A0000000F83F2866000818670008E30708D52F
:1006B000DDE90A01D5E9002300F0C6FDCDE90A0114
:1006C000013664100835002CF0D1DDE90A23DDE99C
:1006D000000100F0E3FECDE900011AE00226AEE7DA
:1006E00000F09F80CAF100049E4B9F4D04F00F0262
:1006F00003EBC203D3E90023DDE90E0100F0A4FD02
:10070000CDE90001241100230226002C7ED1002B0C
:10071000E1D1119B002B00F08680DDE9004500222D
:10072000924B2046294601F001F800287BD0B9F110
:10073000000F78D0049B002B35DD0AF1FF330A93BC
:10074000204600228A4B294600F07EFDCDE90001BB
:10075000049C0136304600F00DFDDDE9002300F079
:1007600073FD0022834B00F0B9FB0646A1F15077E0
:10077000002C5CD10022804BDDE9000100F0ACFBD5
:1007800032463B46CDE9000100F0EEFF002840F084
:100790008A82324607F10043DDE9000100F0C6FF1E
:1007A000002840F07E82DDE90E34CDE90034179B4D
:1007B000002BC0F24D81BAF10E0F00F34981694B55
:1007C00003EBCA0393ED007B0D9B002B8DED047BA7
:1007D00080F2D680B9F1000F00F3D28040F0608241
:1007E0000022654B51EC170B00F02EFDDDE90023D4
:1007F00000F0B0FF4C464E46002840F03982039D81
:10080000312305F8013B0AF1010A35E2E70705D576
:10081000D5E9002300F018FD0136012364100835E6
:1008200073E7022675E7CDF828A04C4692E70399B6
:100830004C4B03EBC4030C440C9953E902230029ED
:1008400044D000204D4900F029FE32463B4600F0DE
:1008500043FB039D06460F46DDE9000102F090F8D8
:10086000129000F087FC02460B46DDE9000100F023
:1008700033FB129B303305F8013B32463B46CDE952
:10088000000100F053FF002860D1DDE900230020C3
:10089000364900F021FB32463B4600F047FF002876
:1008A00040F0B480A5423FF47EAF0022304B30468A
:1008B000394600F0C9FC002206460F462C4BDDE904
:1008C000000100F0C1FCCDE90001C5E73046394622
:1008D00000F0BAFCCDE91201039E2546DDE90001D6
:1008E00002F04EF8074600F045FC303702460B4652
:1008F000DDE9000100F0F0FA06F8017BA642CDE93F
:1009000000014FF0000226D11C4BDDE9120100F07E
:10091000E5FA02460B46DDE9000100F025FF00285C
:1009200074D1DDE912230020144900F0D5FA024603
:100930000B46DDE9000100F0F9FE00283FF433AF7B
:1009400015F8013C302B05F1FF3202D0DDF828A06C
:100950004AE01546F4E7064B00F076FCCDE90001CD
:10096000BCE700BF28660008186700080000F03FD9
:100970000000244000001C40000014400000E03F44
:10098000DDE90067039DDDE904233046394600F0C8
:1009900085FD01F0F5FF044600F0ECFBDDE90423E2
:1009A00000F052FC02460B463046394604F1300650
:1009B00000F092FA05F8016B039EAE1BB1450246AA
:1009C0000B4638D100F08AFADDE9042306460F46CB
:1009D00000F0CAFEC0B9DDE904233046394600F014
:1009E0009BFE08B1E1070FD44146584601F053FB86
:1009F0000023149A2B700AF101031360239B002B30
:100A00003FF4F8AC1D60F5E4CDF828A015F8012CF2
:100A1000392A05F1FF3308D1039A9A4209D10A9A7B
:100A2000039901320A9230220A701A7801321A7040
:100A30008CE71D46EAE700229D4B00F005FC0022F2
:100A4000002306460F4600F067FE00289BD0CBE748
:100A50000C9A002A00F0CB80089A012A00F3AE809D
:100A6000159A002A00F0A68003F23343099C069DE4
:100A7000069A1A440692079A01211A445846079288
:100A800001F0DBFB0646002D0CDD079B002B09DD8A
:100A9000AB42069AA8BF2B46D21A0692079AED1AC5
:100AA000D31A0793099BF3B10C9B002B00F0A38092
:100AB000002C10DD31462246584601F057FC4246D4
:100AC00001460646584601F0C1FB414607465846D6
:100AD00001F0E1FAB846099B1A1B04D0414658467A
:100AE00001F044FC80460121584601F0A6FB109B12
:100AF000002B044640F381801A460146584601F017
:100B000035FC089B012B04467ADD0027236904EBA2
:100B10008303186901F041FBC0F12000079B1844D2
:100B200010F01F0000F08B80C0F12003042B40F375
:100B30008480C0F11C00069B03440693079B03447A
:100B400005440793069B002B05DD41461A4658468F
:100B500001F04CFC8046079B002B05DD21461A4620
:100B6000584601F043FC0446119B002B69D02146F6
:100B7000404601F08EFC002863DA002341460A2239
:100B8000584601F091FA0C9B0AF1FF3A8046002B7F
:100B900000F07C81002331460A22584601F084FA95
:100BA000049B002B064600F38B80089B022B40F32E
:100BB00087804EE0169BC3F1360357E7099B09F186
:100BC000FF34A342BFBF099B0994E21A109BBBBF2D
:100BD0009B1810931C1B0024B9F1000FB5BF069B96
:100BE000069DA3EB09054B46B8BF002340E7099CCF
:100BF000069D0C9E47E7099A70E7089B012B18DCBD
:100C0000009BB3B9019BC3F31303A3B9019B23F06A
:100C100000473F0D3F0537B1069B01330693079B05
:100C2000013307930127109B002B7FF46FAF012046
:100C300074E70027F7E7009FF5E783D018461C30DC
:100C400079E7B9F1000F35DC089B022B32DDCDF8D6
:100C50001090049B63B921460522584601F024FAFE
:100C600001460446404601F014FC00283FF7C7AD9A
:100C70000D9B039D6FEA030A00272146584601F0A9
:100C80000AFA002E3FF4B0AE2FB1B74203D0394676
:100C9000584601F000FA3146584601F0FCF9A3E647
:100CA00000242646E4E7DDF828A02646A7E500BF95
:100CB000000024400C9BCDF81090002B00F0ED803C
:100CC000002D05DD31462A46584601F08FFB0646C9
:100CD000002F56D07168584601F0B8F932690232D7
:100CE0000546920006F10C010C3001F0CBFF012209
:100CF0002946584601F07AFB039B03F10109DDE91F
:100D0000032313440993009B03F001033746079321
:100D1000064609F1FF33214640460093FFF7A8FA43
:100D2000034630330490394640460A9301F0B1FB44
:100D3000324606902146584601F0C5FBC2680A9B20
:100D4000054602BB0146404601F0A3FB0A9B024652
:100D5000294658460C920A9301F09DF9089B0C9A7B
:100D600043EA0201079B0B434D460A9B0DD1392BE9
:100D700027D0069A002A01DD049B3133009A1370B4
:100D80007BE73046B8E70122E2E70699002904DB59
:100D900008980143079801431ED1002AEEDD414621
:100DA00001225846069301F021FB2146804601F0BE
:100DB00070FB0028069B02DCE0D1DA07DED5392B78
:100DC000DAD1009A3923137015F8013C392B05F15B
:100DD000FF3247D00133D2E7002A03DD392BF0D0B0
:100DE0000133CBE7099A09F8013C914521D04146EE
:100DF00000230A22584601F057F9B74280464FF0C7
:100E000000034FF00A023946584606D101F04CF96A
:100E10000746064609F101097BE701F045F931462D
:100E2000074600230A22584601F03EF90646F1E73C
:100E30000027414601225846009301F0D7FA214687
:100E4000804601F026FB0028BEDC02D1009BDB07B8
:100E5000BAD415F8013C302B05F1FF327FF40DAF09
:100E60001546F6E7039B934204D10AF1010A3123A8
:100E7000039A84E71546A7E7134BFFF7DABA239BDB
:100E8000002B7FF4BBAA114BFFF7D3BA049B002BB6
:100E900003DC089B022B3FF7DCAE039D2146404656
:100EA000FFF7E6F900F1300305F8013B039A0499D6
:100EB000AA1A9142BCDD414600230A22584601F09D
:100EC000F3F88046EAE700BF006A0008E26A00081B
:100ED00081F0004102E000BF83F0004330B54FEAEB
:100EE00041044FEA430594EA050F08BF90EA020F58
:100EF0001FBF54EA000C55EA020C7FEA645C7FEAEB
:100F0000655C00F0E2804FEA5454D4EB5555B8BF0D
:100F10006D420CDD2C4480EA020281EA030382EA7E
:100F2000000083EA010180EA020281EA0303362D10
:100F300088BF30BD11F0004F4FEA01314FF4801CE3
:100F40004CEA113102D0404261EB410113F0004FF5
:100F50004FEA03334CEA133302D0524263EB4303AC
:100F600094EA050F00F0A780A4F10104D5F1200E4A
:100F70000DDB02FA0EFC22FA05F2801841F10001A5
:100F800003FA0EF2801843FA05F359410EE0A5F179
:100F900020050EF1200E012A03FA0EFC28BF4CF0AA
:100FA000020C43FA05F3C01851EBE37101F0004560
:100FB00007D54FF0000EDCF1000C7EEB00006EEB6D
:100FC0000101B1F5801F1BD3B1F5001F0CD34908F7
:100FD0005FEA30004FEA3C0C04F101044FEA44524E
:100FE00012F5800F80F09A80BCF1004F08BF5FEAD5
:100FF000500C50F1000041EB045141EA050130BDB5
:101000005FEA4C0C404141EB010111F4801FA4F157
:101010000104E9D191F0000F04BF01460020B1FAAC
:1010200081F308BF2033A3F10B03B3F120020CDAE4
:101030000C3208DD02F1140CC2F10C0201FA0CF0C2
:1010400021FA02F10CE002F11402D8BFC2F1200C27
:1010500001FA02F120FA0CFCDCBF41EA0C019040DD
:10106000E41AA2BF01EB0451294330BD6FEA040426
:101070001F3C1CDA0C340EDC04F11404C4F1200211
:1010800020FA04F001FA02F340EA030021FA04F323
:1010900045EA030130BDC4F10C04C4F1200220FA7A
:1010A00002F001FA04F340EA0300294630BD21FAB8
:1010B00004F0294630BD94F0000F83F4801306BF7E
:1010C00081F480110134013D4EE77FEA645C18BF72
:1010D0007FEA655C29D094EA050F08BF90EA020F09
:1010E00005D054EA000C04BF1946104630BD91EA01
:1010F000030F1EBF0021002030BD5FEA545C05D104
:101100004000494128BF41F0004130BD14F5800442
:101110003CBF01F5801130BD01F0004545F0FE41B6
:1011200041F470014FF0000030BD7FEA645C1ABFEB
:10113000194610467FEA655C1CBF0B46024650EA22
:10114000013406BF52EA033591EA030F41F400214E
:1011500030BD00BF90F0000F04BF0021704730B5D4
:101160004FF4806404F132044FF000054FF00001A9
:1011700050E700BF90F0000F04BF0021704730B56A
:101180004FF4806404F1320410F0004548BF40423F
:101190004FF000013EE700BF42004FEAE2014FEA94
:1011A00031014FEA02701FBF12F07F4393F07F4F6F
:1011B00081F06051704732F07F4208BF704793F072
:1011C0007F4F04BF41F40021704730B54FF4607485
:1011D00001F0004521F000411CE700BF50EA010288
:1011E00008BF704730B54FF000050AE050EA010231
:1011F00008BF704730B511F0004502D5404261EBA1
:1012000041014FF4806404F132045FEA915C3FF4E1
:10121000D8AE4FF003025FEADC0C18BF03325FEA7E
:10122000DC0C18BF033202EBDC02C2F1200300FA2F
:1012300003FC20FA02F001FA03FE40EA0E0021FA54
:1012400002F11444BDE600BF70B54FF0FF0C4CF442
:10125000E06C1CEA11541DBF1CEA135594EA0C0FF4
:1012600095EA0C0F00F0DEF82C4481EA030621EA2F
:101270004C5123EA4C5350EA013518BF52EA03356A
:1012800041F4801143F4801338D0A0FB02CE4FF01C
:101290000005E1FB02E506F00042E0FB03E54FF04C
:1012A0000006E1FB03569CF0000F18BF4EF0010E44
:1012B000A4F1FF04B6F5007F64F5407404D25FEA40
:1012C0004E0E6D4146EB060642EAC62141EA5551F3
:1012D0004FEAC52040EA5E504FEACE2EB4F1FD0C35
:1012E00088BFBCF5E06F1ED8BEF1004F08BF5FEAB3
:1012F000500E50F1000041EB045170BD06F0004665
:1013000046EA010140EA020081EA0301B4EB5C0411
:10131000C2BFD4EB0C0541EA045170BD41F4801109
:101320004FF0000E013C00F3AB8014F1360FDEBF2E
:10133000002001F0004170BDC4F10004203C35DA0A
:101340000C341BDC04F11404C4F1200500FA05F38D
:1013500020FA04F001FA05F240EA020001F000422E
:1013600021F0004110EBD37021FA04F642EB0601A4
:101370005EEA430E08BF20EAD37070BDC4F10C04CE
:10138000C4F1200500FA04F320FA05F001FA04F292
:1013900040EA020001F0004110EBD37041F100017E
:1013A0005EEA430E08BF20EAD37070BDC4F1200589
:1013B00000FA05F24EEA020E20FA04F301FA05F2F1
:1013C00043EA020321FA04F001F0004121FA04F299
:1013D00020EA020000EBD3705EEA430E08BF20EA69
:1013E000D37070BD94F0000F0FD101F000464000A3
:1013F00041EB010111F4801F08BF013CF7D041EA25
:10140000060195F0000F18BF704703F00046520028
:1014100043EB030313F4801F08BF013DF7D043EAF9
:101420000603704794EA0C0F0CEA135518BF95EAAF
:101430000C0F0CD050EA410618BF52EA4306D1D136
:1014400081EA030101F000414FF0000070BD50EA55
:10145000410606BF1046194652EA430619D094EADF
:101460000C0F02D150EA013613D195EA0C0F05D1C9
:1014700052EA03361CBF104619460AD181EA03011D
:1014800001F0004141F0FE4141F470014FF00000D5
:1014900070BD41F0FE4141F4780170BD70B54FF070
:1014A000FF0C4CF4E06C1CEA11541DBF1CEA1355F0
:1014B00094EA0C0F95EA0C0F00F0A7F8A4EB0504D2
:1014C00081EA030E52EA03354FEA013100F08880C9
:1014D0004FEA03334FF0805545EA131343EA126392
:1014E0004FEA022245EA111545EA10654FEA002647
:1014F0000EF000419D4208BF964244F1FD0404F500
:10150000407402D25B084FEA3202B61A65EB03055B
:101510005B084FEA32024FF480104FF4002CB6EB18
:10152000020E75EB030E22BFB61A754640EA0C0098
:101530005B084FEA3202B6EB020E75EB030E22BFD8
:10154000B61A754640EA5C005B084FEA3202B6EB19
:10155000020E75EB030E22BFB61A754640EA9C00D8
:101560005B084FEA3202B6EB020E75EB030E22BFA8
:10157000B61A754640EADC0055EA060E18D04FEA66
:10158000051545EA16754FEA06164FEAC30343EA06
:1015900052734FEAC2025FEA1C1CC0D111F4801FD3
:1015A0000BD141EA00014FF000004FF0004CB6E7CC
:1015B00011F4801F04BF01430020B4F1FD0C88BF6B
:1015C000BCF5E06F3FF6AFAEB5EB030C04BFB6EB76
:1015D000020C5FEA500C50F1000041EB045170BD69
:1015E0000EF0004E4EEA113114EB5C04C2BFD4EB96
:1015F0000C0541EA045170BD41F480114FF0000E1A
:10160000013C90E645EA060E8DE60CEA135594EA95
:101610000C0F08BF95EA0C0F3FF43BAF94EA0C0F98
:101620000AD150EA01347FF434AF95EA0C0F7FF40D
:1016300025AF104619462CE795EA0C0F06D152EA61
:1016400003353FF4FDAE1046194622E750EA410645
:1016500018BF52EA43067FF4C5AE50EA41047FF456
:101660000DAF52EA43057FF4EBAE12E74FF0FF3CBB
:1016700006E000BF4FF0010C02E000BF4FF0010C8C
:101680004DF804CD4FEA410C7FEA6C5C4FEA430C05
:1016900018BF7FEA6C5C1BD001B050EA410C0CBF54
:1016A00052EA430C91EA030F02BF90EA020F0020B6
:1016B000704710F1000F91EA030F58BF994208BF1D
:1016C00090422CBFD8176FEAE37040F001007047DA
:1016D0004FEA410C7FEA6C5C02D150EA013C07D131
:1016E0004FEA430C7FEA6C5CD6D152EA033CD3D07C
:1016F0005DF8040B704700BF8446104662468C4676
:101700001946634600E000BF01B5FFF7B7FF0028A8
:1017100048BF10F1000F01BD4DF808EDFFF7F4FFD1
:101720000CBF012000205DF808FB00BF4DF808ED5C
:10173000FFF7EAFF34BF012000205DF808FB00BF7F
:101740004DF808EDFFF7E0FF94BF012000205DF8A1
:1017500008FB00BF4DF808EDFFF7CEFF94BF012056
:1017600000205DF808FB00BF4DF808EDFFF7C4FF4F
:1017700034BF012000205DF808FB00BF53B94AB90F
:10178000002908BF00281CBF4FF0FF314FF0FF3089
:1017900000F00CB8ADF1080C6DE904CE01F018F9B9
:1017A000DDF804E0DDE9022304B07047704700BFB4
:1017B0002DE9FF4755EC104B002D0E46914619467A
:1017C000DDF830A04FF0000203DA05F100431D46BA
:1017D0002D220D9F0A7027F02007462F04D0452F99
:1017E00000D10136022100E0032103AB019302ABDB
:1017F00000933246534645EC104BFEF7C2FD472F8F
:10180000804602D119F0010F22D0462F08EB0609BD
:1018100011D198F80030302B0AD100220023204645
:101820002946FFF779FF18B9C6F10106CAF800602A
:10183000DAF8003099440022002320462946FFF7B9
:101840006BFF08B1CDF80C903022039B4B4508D3B9
:10185000039B0E9AA3EB08034046136004B0BDE857
:10186000F087591C03911A70EFE7F7B50029BABF4A
:1018700049422D232B2309290270437021DD0DF1EC
:1018800007031F460A2691FBF6F206FB12143034BA
:10189000632903F1FF3503F8014C0ADC303205F807
:1018A000012C023B821CBB42144605D3201A03B014
:1018B000F0BD2B461146E6E713F8011B02F8011BA9
:1018C000F1E7302319448370041DC170EEE72DE960
:1018D000F04F8DB00C46DDF8588016461F46054681
:1018E00000F0ACFB03680693184601F0EBF9002307
:1018F0000A93D8F800300790073323F0070303F169
:10190000080294F818A0D4F800B0C8F80020D3E971
:101910000023C4E9122394ED127B8DED047BDDE9F5
:10192000048323F000494FF0FF32A74B404649465D
:1019300001F010F870BB4FF0FF32A34B4046494610
:10194000FFF7FEFE30BB00220023DDE90401FFF7B4
:10195000EDFE10B12D2384F843309C4A9C4BBAF124
:10196000470F94BF9046984603232BF0040223614F
:1019700022604FF00009009733460BAA2146284603
:1019800000F0D0F9013040F08C804FF0FF300DB006
:10199000BDE8F08FDDE904231046194600F0DAFFB8
:1019A00040B1059B8B4A002BBCBF2D2384F84330EC
:1019B000894BD4E763685A1C0AF0DF093ED106233D
:1019C0006360002303930AAB4BF48062CDE901A36B
:1019D00009AB0093616822600DF123039DED040BB8
:1019E0002846FFF7E5FEB9F1470F8046099908D16F
:1019F000C81C02DB6368994241DDAAF1020A5FFA62
:101A00008AFABAF1650F20D80139524604F1500024
:101A10000991FFF72AFF0A9A1318012A81462361C8
:101A200002DC2268D20701D5013323619DF82330FF
:101A3000002BA0D02D2384F843309CE7B9F1470F49
:101A4000BFD1002BBDD10123BAE7BAF1660F18D17F
:101A5000002963680BDD216113B92268D00702D524
:101A600001330B442361A1654FF00009DEE713B990
:101A70002268D20701D50233F4E70123F2E74FF0E1
:101A8000670A0A9B994205DB23682161D807EAD5DA
:101A90004B1CE7E70029D4BFC1F102020122134425
:101AA000E0E723685A0507D42369424631462846B1
:101AB000B84701302BD168E7BAF1650F40F2DD80FD
:101AC00000220023D4E91201FFF726FE002833D0BC
:101AD0000123424A31462846B84701303FF455AF0A
:101AE000DDE909239A4202DB2368D8070FD5DDE937
:101AF000062331462846B84701303FF446AF4FF041
:101B0000000804F11A090A9B013B434509DC2368DC
:101B10009B0700F10281E0680B9B9842B8BF184612
:101B200035E701234A4631462846B84701303FF49D
:101B30002CAF08F10108E6E7099B002B2BDC012301
:101B4000264A31462846B84701303FF41EAFDDE94A
:101B50000923134302D12368D907D8D5DDE9062329
:101B600031462846B84701303FF40FAF4FF0000927
:101B700004F11A0A099B5B424B4501DC0A9B94E77E
:101B80000123524631462846B84701303FF4FDAEA6
:101B900009F10109EEE70A9AA36D9A42A8BF1A4615
:101BA000002A914607DD1346314642462846B8478B
:101BB00001303FF4EAAE04F11A034FF0000B29EABA
:101BC000E979049316E000BFFFFFEF7FAC6A0008DD
:101BD000B06A0008B46A0008B86A0008006A000821
:101BE0000123049A31462846B84701303FF4CDAE70
:101BF0000BF1010BD4F858A0AAEB09035B45EFDC0D
:101C0000DDE909239A421BDB2368DA0718D4DDE9F2
:101C1000092392451CDBA3EB0A09B9F1000F08DD8B
:101C20004B4608EB0A0231462846B84701303FF4DC
:101C3000ACAE4FF0000829EAE97904F11A0A14E081
:101C4000DDE9062331462846B8470130DFD19CE65E
:101C5000A3EB0209E1E70123524631462846B84783
:101C600001303FF492AE08F10108DDE909239B1A27
:101C7000A3EB09034345EEDC49E70A9A012A01DC9C
:101C8000DB0737D50123424631462846B8470130A5
:101C90003FF47BAEDDE9062331462846B8470130E4
:101CA0003FF473AE00220023D4E91201FFF734FDA4
:101CB000D8B90A9B08F10102013B31462846B847D2
:101CC00001300ED161E60123524631462846B8471D
:101CD00001303FF45AAE08F101080A9B013B43452D
:101CE000F1DC4B4604F15002E0E64FF0000804F14D
:101CF0001A0AF2E701234246DFE701234A4631464A
:101D00002846B84701303FF440AE08F10108E368C7
:101D10000B9A9B1A4345F0DCFDE64FF0000804F1F6
:101D20001909F4E72DE9F04791461F468A680B69C7
:101D3000DDF820809342B8BF1346C9F8003091F80F
:101D4000432006460C4612B10133C9F8003023681F
:101D5000990642BFD9F800300233C9F8003025682F
:101D600015F0060507D104F1190AE368D9F8002037
:101D70009B1AAB4228DC94F843302268003318BF2A
:101D8000012392062DD404F1430239463046C04760
:101D9000013020D02368E568D9F8002003F006035D
:101DA000042B08BFAD1AA36822690CBF25EAE575AC
:101DB00000259342C4BF9B1AED184FF000091A3456
:101DC0004D451AD1002008E00123524639463046DD
:101DD000C047013003D14FF0FF30BDE8F087013537
:101DE000C3E7E1185A1C302081F84300224494F8DC
:101DF000451082F843100233C5E7012322463946D5
:101E00003046C0470130E6D009F10109D8E72DE995
:101E1000F04306460C4601F14300097E85B06E2969
:101E2000984617460C9B00F0BA8024D8632939D015
:101E30000AD8002900F0C380582900F0918004F1ED
:101E4000420584F8421035E0642901D06929F6D1B1
:101E500025681A6815F0800F02F104012CD0126871
:101E60001960002A03DA2D23524284F84330DFF848
:101E7000C0C10A233FE0732900F0A58008D86F296C
:101E800021D07029DBD1226842F02002226003E0D9
:101E9000752918D07829D2D1782284F84520DFF826
:101EA00094C161E01A68111D1960136884F842300A
:101EB00004F14205012393E01268196015F0400F08
:101EC00018BF12B2CDE7D4F800C01A681CF0800F1A
:101ED00002F104051D6001D0126803E01CF0400F00
:101EE000FAD01288DFF848C16F290CBF08230A23F3
:101EF000002184F843106568A560002DA2BF216809
:101F000021F0040121600AB9002D46D00546B2FB3C
:101F1000F3F103FB112E93421CF80EE005F801EDDE
:101F200039D9082B0BD12368DA0708D523696268F1
:101F30009A42DEBF302305F8013C05F1FF35401B16
:101F40002061CDF800803B4603AA21463046FFF7CA
:101F5000E9FE013049D14FF0FF3005B0BDE8F08314
:101F6000DFF8CCC084F845101D68216855F8042BB3
:101F70001D600D060BD5CD0744BF41F02001216047
:101F80001AB9236823F0200323601023B0E74B061F
:101F900048BF92B2EFE70A46B9E70546C1E71A68BB
:101FA000D4F800C06169151D1D601CF0800F136816
:101FB00001D0196003E01CF0400FFAD01980002313
:101FC00023610546BDE71A68111D1960156862682E
:101FD00000212846FEF7FCF808B1401B60606368EA
:101FE0002361002384F84330ABE723692A4639464E
:101FF0003046C0470130AED023689B0713D4E06859
:10200000039B9842B8BF1846A7E701234A463946C2
:102010003046C04701309ED00135E368039A9B1AD1
:10202000AB42F2DCEBE7002504F11909F5E700BF4C
:10203000BC6A0008CD6A0008F0307047004870475D
:10204000801100200048704780110020C36C70B5DB
:1020500005460C467BB1EB6C53F82400A0B9012176
:1020600001FA04F6721D9200284600F033FE48B1D2
:10207000C0E901460BE02122042100F02BFEE864B8
:102080000028E8D1002070BD026843F82420002316
:10209000C0E90333F7E731B1C36C4A6853F8220053
:1020A000086043F8221070472DE9F0410D691F4682
:1020B00006460C4601F1140C0023DCF8000081B246
:1020C00002FB01710F0C000C02FB007089B201339E
:1020D00001EB00419D424FEA10474CF8041BECDC39
:1020E000D7B1A368AB4212DC616830460131FFF71B
:1020F000ADFF2269023204F10C01804692000C30DF
:1021000000F0C0FD21463046FFF7C5FF444604EB12
:10211000850301355F6125612046BDE8F0812DE929
:10212000F8430C4615461F4609220833064693FB22
:10213000F2F3002101229A4220DB3046FFF786FFAE
:10214000089B4361092D4FF00103036119DD04F180
:102150000909C8462C4418F8013B0146303B0A22C5
:102160003046FFF7A1FFA045F5D1A5F108044C4486
:102170002D1B6319BB4207DBBDE8F8835200013118
:10218000D9E70A340925F3E714F8013B0146303B4F
:102190000A223046FFF788FFEBE7020C12040346E1
:1021A000CAB90304102013F07F4F04BF1B0208308C
:1021B00013F0704F04BF1B01043013F0404F04BFF5
:1021C0009B000230002B05DB13F0804F00F1010073
:1021D00008BF202070470020E5E7036813F00702DE
:1021E00001460BD0DA0724D4980749BF5B089B0847
:1021F00001200B605CBF0B600220704798B2B0B941
:102200001B0C102013F0FF0F04BF1B0A08301A0725
:1022100004BF1B0904309A0704BF9B080230DA0789
:1022200003D45B0800F1010005D00B607047104635
:10223000E8E7002070472020704710B50C460121C8
:10224000FFF704FF01224461026110BD2DE9F74F41
:1022500090460A69D8F810309A42B8BF0B460C462F
:10226000BCBF444698462769D8F81090A3686168B7
:1022700007EB0906B342B8BF0131FFF7E7FE00F1F3
:10228000140505EB860E2B460022734516D304F188
:10229000140308F1140203EB870702EB8903009390
:1022A000009B019293420CD8002E03DD5EF8043DA2
:1022B000002B59D0066103B0BDE8F08F43F8042B22
:1022C000E3E7B2F800A0BAF1000F23D004F114093B
:1022D000AC464FF0000859F8041BDCF800B08BB294
:1022E0001FFA8BFB0AFB03B34FEA114BDCF800101B
:1022F00043444FEA11480AFB0B8101EB13419BB2A7
:1023000043EA01434F454FEA11484CF8043BE2D8F9
:10231000CCF80080019BB3F802900432B9F1000FB1
:1023200020D02B6804F11408AC464FF0000AB8F82E
:102330000010BCF802B009FB01B18A449BB243EA29
:102340000A434CF8043B58F8043BBCF800101B0C43
:1023500009FB031303EB1A4347454FEA134AE6D838
:10236000CCF8003004359BE7013E9DE72DE9F843AA
:10237000154612F0030206460F4607D0013A1A4CE2
:10238000002354F82220FFF78FFE0746AD1027D018
:10239000B46C44B940F271213046FFF74EFF002380
:1023A000B064044603604FF00008EB070AD53946D5
:1023B00022463046FFF74AFF394681463046FFF74E
:1023C0006AFE4F466D100BD0206838B92246214670
:1023D0003046FFF73BFF2060C0F800800446E4E78A
:1023E0003846BDE8F88300BF186600082DE9F047BD
:1023F0000C464FEA621A236949680AEB0309A3688D
:102400000746164609F10105AB4233DB3846FFF7B4
:102410001DFE0023804600F1140100F11002184651
:1024200053452ADB20692AEAEA7A04F1140316F0FC
:102430001F0201EB8A0103EB800C22D0C2F1200EB7
:1024400000201E689640304341F8040B53F8040BFB
:102450009C4520FA0EF0F4D8086008B109F1020595
:10246000013D3846C8F810502146FFF714FE40469B
:10247000BDE8F08701315B00C6E742F8040F013385
:10248000CEE7043953F8042B41F8042F9C45F9D8C2
:10249000E6E703690A699B1A30B50CD19200143043
:1024A00014318418114454F8045D51F8042D9542F8
:1024B00003D005D30123184630BDA042F3D3FAE779
:1024C0004FF0FF33F7E72DE9F0470D460746114679
:1024D00028461446FFF7DDFF061E08D13146384670
:1024E000FFF7B4FD0123C0E90436BDE8F087A4BFBF
:1024F00023462C4638466168A6BF1D4600260126A5
:10250000FFF7A4FD2B69C660266905F1140904F1E3
:10251000140202EB860709EB830800F114054FF063
:10252000000E52F804AB59F8044B1EFA8AF1A3B21C
:10253000C91A230CC3EB1A4303EB214389B24FEAB8
:10254000234EC84541EA0343944645F8043BE8D886
:10255000BC4504D355F8043D83B10661C5E75CF87A
:10256000041B1EFA81F31A1402EB11429BB243EAD8
:1025700002434FEA224E45F8043BE9E7013EE9E712
:10258000114B10EE902A1A40A2F15073002B04DD7B
:102590000020194641EC100B70475B421B15132BB2
:1025A0004FF000004FF0000104DC4FF4002242FA2B
:1025B00003F1EFE7143B1E2BDABF4FF0004222FA83
:1025C00003F301231846E5E70000F07FF8B505693D
:1025D00000F1140707EB85052E1F55F8044C204623
:1025E000FFF7DBFDC0F120030A280B60DFF878C09D
:1025F00014DCC0F10B0E24FA0EF1B74241EA0C03D1
:1026000034BF55F8081C0021153004FA00F021FAF7
:102610000EF140EA010243EC102BF8BDB7423ABF7D
:10262000A5F1080655F8081C00210B3817D0C0F199
:10263000200C04FA00F5BE4221FA0CF445EA040528
:102640008CBF56F8044C002445F07F5301FA00F08B
:1026500024FA0CF443F4401340EA0402DBE744EAB2
:102660000C030A46D7E700BF0000F03F2DE9F7430F
:102670000E46012159EC108B1546FFF7E7FCC9F314
:102680000A540746C9F313032CBB0193B8F10003A6
:1026900026D068460093FFF7A0FD0099F0B1019A9B
:1026A000C0F1200302FA03F30B43C2407B610192A5
:1026B000019BBB61002B14BF022101213961C4B110
:1026C000A4F2334404443460C0F135002860384635
:1026D00003B0BDE8F08343F48013D6E77961E7E700
:1026E00001A8FFF77AFD019B7B6101213961203050
:1026F000E5E707EB8103A0F2324030601869FFF78D
:102700004CFDC0EB4110E1E72DE9F74F88466946E3
:102710008146FFF75BFF01A9404657EC106BFFF7BE
:1027200055FFD9F81030D8F81020A3EB020CDDE9E2
:1027300000329B1A03EB4C135BEC10AB002BCEBFAB
:102740003A46C3EB03335A4659463D46D4BF02EBE3
:10275000035102EB0355304610EE102A0B46294672
:10276000FEF79CFE41EC100B03B0BDE8F08F17287C
:10277000D0B5044607DC094B03EBC004D4E90401DF
:1027800041EC100BD0BD0649064F00200026324612
:102790003B46FEF759FD013CF9D1F1E71866000808
:1027A0000000F03F00002440013910B549111469C0
:1027B000013102F1140300EB810103EB8404A34215
:1027C000024603D300238A4205D310BD53F8042BDD
:1027D00040F8042BF3E742F8043BF4E700F114025D
:1027E00000694B11984210B511DB0ADD11F01F0191
:1027F00007D052F8234024FA01F000FA01F18C428C
:102800000BD102EB8303934203D8002010BD034693
:10281000F7E753F8041D0029F5D00120F6E700BFC3
:10282000F8B5CE1C26F0030608360C2E38BF0C2651
:10283000002E074601DBB14203D90C233B60002088
:10284000F8BD214D00F054FA2A68144694B96B681B
:1028500023B92146384600F039F8686031463846D9
:1028600000F034F8431C23D10C233B60384600F0C1
:1028700040FAE4E723689B1B17D40B2B03D9236092
:102880001C44266004E06368A2420CBF2B605360C6
:10289000384600F02EFA04F10B00231D20F007004B
:1028A000C21ACDD01B1AA350CAE722466468CDE7EE
:1028B000C41C24F00304A042E3D0211A384600F0DF
:1028C00005F80130DDD1CFE70000002038B5064C17
:1028D000002305460846236001F0D8FB431C02D1C3
:1028E000236803B12B6038BD4C03002010B4034CA7
:1028F000D4F8E440A4465DF8044B604790100020F3
:1029000082B001B901A942B14BB113780B601278C2
:10291000101C18BF012002B070471046FBE76FF093
:102920000100F8E710B4034CD4F8E040A4465DF889
:10293000044B60479010002049B1FF2A85BF8A23CD
:1029400003600A704FF0FF3098BF012070470846BF
:10295000704700BF4FEA410C7FEA6C5C02D150EA3D
:10296000013C0AD14FEA430C7FEA6C5C02D152EA87
:10297000033C02D14FF0000070474FF00100704758
:102980004FEA410212F5001215D211D56FF4787397
:10299000B3EB625212D94FEAC12343F0004343EA3A
:1029A000505311F0004F23FA02F018BF4042704715
:1029B0004FF00000704750EA013005D111F000409F
:1029C00008BF6FF0004070474FF00000704700BF35
:1029D0002DE9F04F099F154604468E461E46002BF2
:1029E00040F0CC808A42B2FA82FC4CD9BCF1000F94
:1029F0000BD0CCF1200801FA0CFE20FA08F802FAFC
:102A00000CF548EA0E0E00FA0CF44FEA15491FFACD
:102A100085F8BEFBF9FA210C09FB1AE30AFB08FB57
:102A200041EA03439B452AD9EB180AF1FF3004D24F
:102A30009B4502D9AAF102002B44A3EB0B03A4B2DD
:102A4000B3FBF9F209FB123302FB08F844EA034432
:102A5000A04516D92C1902F1FF3303D2A04501D9A4
:102A6000931E2C44A4EB080443EA004027B124FA47
:102A70000CF400233C607B603146BDE8F08F50468B
:102A8000DBE71346EEE702B9FFDEBCF1000F2ED103
:102A90008B1A01264FEA154EAAB2B3FBFEF8210CA1
:102AA0000EFB183308FB02F941EA0343994561D94B
:102AB000EB1808F1FF3004D2994502D9A8F10200C1
:102AC0002B44A3EB0903A4B2B3FBFEF10EFB1133BD
:102AD0004A4344EA0344A2424ED92C1901F1FF3380
:102AE00003D2A24201D98B1E2C44A41ABCE7CCF11C
:102AF000200E02FA0CF521FA0EF901FA0CF320FA75
:102B00000EFE4EEA03034FEA154800FA0CF4B9FB37
:102B1000F8F11FFA85FE08FB1192180C01FB0EF666
:102B200040EA0242964221D9AA1801F1FF3003D2AD
:102B3000964201D9881E2A44921B9BB2B2FBF8F937
:102B400008FB192209FB0EFE43EA02439E450FD9FA
:102B5000EB1809F1FF3604D29E4502D9A9F102060D
:102B60002B44A3EB0E0346EA004693E70846E3E74F
:102B70004E46F6E74046A4E70B46B6E78B4205D93A
:102B80000FB1C7E900010026304675E7B3FA83FCB0
:102B9000BCF1000F0FD18B4201D3824209D8841AB5
:102BA00061EB030E0120002F6AD0C7E9004E00261A
:102BB00062E76046F7E7CCF1200E03FA0CF322FA45
:102BC0000EF521FA0EF41D4301FA0CF320FA0EF172
:102BD0000B434FEA154A00FA0CF6B4FBFAF91FFA58
:102BE00085F80AFB19401C0C09FB08F144EA004473
:102BF000A14202FA0CF23FD92C1909F1FF3004D29C
:102C0000A14202D9A9F102002C44641A9BB2B4FB80
:102C1000FAF90AFB194409FB08F843EA044188451C
:102C20002CD9691809F1FF3304D2884502D9A9F1DA
:102C30000203294443EA0040A1EB0801A0FB0289FA
:102C40004945C2464C4602D306D1464504D2B8EBAC
:102C5000020A69EB0504013897B1B6EB0A0361EB90
:102C6000040606FA0EFE23FA0CF34EEA030326FAD4
:102C70000CF6C7E900369AE74846C6E74B46D9E75F
:102C80003E46F9E60A44914200F1FF3300D1704715
:102C900010B511F8014B03F8014F9142F9D110BD65
:102CA00002440346934200D1704703F8011BF9E741
:102CB00010F8012B11F8013B012A28BF9A42F7D0E6
:102CC000D01A7047034613F8012B002AFBD1181ABB
:102CD0000138704738B502FB01F42146FFF7A0FD2B
:102CE000054618B122460021FFF7DAFF284638BD15
:102CF000704770472DE9F74F80468A4643686A4619
:102D00005B680121984788BBDDE9004944F62063F0
:102D1000A4FB036703FB0977174A002330463946B3
:102D2000FEF72CFD154B4FF0FF32BB4208BFB242FD
:102D300083461ED3AAFB04450AFB09550E4A00230D
:102D400020462946FEF71AFD0C4A4FF0FF31AA42F1
:102D500008BFA14203460CD3D8F80420012114680F
:102D600040465A46A04703B0BDE8F08F6FF004001C
:102D7000F9E76FF08500F6E740420F003F420F0091
:102D800038B51648164D01F061FE286028B9134980
:102D9000144802F0E1FD012038BD134801F056FE51
:102DA000124B186008B91049F2E70121286802F0B7
:102DB00099FB0F210446286802F094FB0E2104437E
:102DC000286802F08FFB64B204430D21286802F0EA
:102DD00089FB64B2204340B2DEE700BF7B69000894
:102DE000100000208169000892690008140000208A
:102DF00008B578B1012806D144F62061074B186860
:102E0000FFF778FF08B9002003E0054802F0A4FDB1
:102E1000012008BD41F65831F0E700BF1400002042
:102E20009869000870B5042822D8DFE800F0032371
:102E30003A434C00404D01221146286802F048FBFD
:102E4000002204460F21286802F042FB01220443BD
:102E50000E21286802F03CFB64B2044364B20022F5
:102E600028680D2102F034FB204310F0FF0F38D109
:102E700000203AE0304D00220121286802F028FBB2
:102E8000012204460F21286802F022FB002204439D
:102E90000E21286802F01CFB64B2044364B20122D4
:102EA000DEE7254D00220121286802F011FB0122F6
:102EB0000446C7E7204D01221146286802F008FBAE
:102EC00000220446DEE71D4D41F65834A4F52F7468
:102ED00021462868FFF70EFF064638B1184802F071
:102EE0003BFD184802F038FD012070BD0A2002F0B9
:102EF000EBF8B4F52F7FE9D128683146FFF7FAFEE9
:102F000005460028EAD10C4E02460121306802F045
:102F1000DFFA2A4604460F21306802F0D9FA2A4621
:102F200004430E21306802F0D3FA64B2044364B261
:102F30002A460D21306895E710000020140000207B
:102F4000986900086E69000810B5074C00F078F920
:102F5000022808D1204602F0FFFC02F0E9FA0A201C
:102F600002F0CAFAF2E710BDEB690008F8B50646B0
:102F700000201F4D1F4FFFF73BFF2C462B78FB5CBB
:102F8000B34229D202F0D4FA00F0F4F913282BD975
:102F90000020FFF72DFF02F0CBFA00F051F90228D4
:102FA00009D12178CB0706D5134802F0D5FC02F0F1
:102FB000BFFAFFF7C9FF2178104802F0CDFC02F0FC
:102FC000B7FA00F03DF90228D8D121780C48013138
:102FD000C9B2217002F0C0FC0420FFF723FF642077
:102FE000BDE8F84002F088BA0420FFF71BFFCBE7EA
:102FF000480300202C120020AB690008B5690008C6
:10300000BF69000808B50020FFF7F2FE0220FFF7B5
:1030100009FF00F05BF80028F8D0054802F09CFC9E
:103020000420FFF7FFFE0020BDE80840FFF7E0BEE8
:10303000E269000838B502F061FA0F4C02F075FA47
:1030400025462378012B13D90C4802F085FC00F0AB
:103050004DF801460A4802F07FFCFFF7D3FF00233A
:1030600023700220FFF782FF2B78012BF9D938BD9E
:103070000220FFF77BFFE4E748030020D069000847
:10308000DC69000838B50E480E4D01F0DFFC286001
:1030900028B90D480A4902F05FFC012038BD436899
:1030A0001C6800230C221946A04704462868436880
:1030B0001D6800230B221946A8472043C0B2EDE744
:1030C000F46900081800002081690008064B13B558
:1030D000186843680C229C68002101ABA0479DF84A
:1030E000040002B010BD00BF18000020064B13B54D
:1030F000186843680B229C68002101ABA0479DF82B
:10310000040002B010BD00BF1800002038B50B4C01
:103110000B4D236813F0010F06D100F06FFC2860FF
:1031200023680133236038BD00F068FC2B68C01AA7
:103130006023B0FBF3F0034B1860F1E720000020A0
:103140003C0000204000002010B51E481E4C01F03D
:103150007DFC01221146206002F010FA01220421B8
:10316000206802F00BFA01220D21206802F006FA15
:1031700001220E21206802F001FA01221146206886
:1031800002F0F2F900220421206802F0EDF90F218B
:103190006222206802F0F2F90C490D4B20684B6066
:1031A0004FF400438B604368DB680BB10122984702
:1031B000206843681B6923B10F220021BDE810403D
:1031C000184710BDF46900083400002024000020D6
:1031D0000D31000873B50546174C012D206820D02D
:1031E0006EB28EB1022D25D0002301932068436872
:1031F0000F229D68002101ABA847019B002BF5D051
:103200000E4B186802B070BD32460D2102F0ACF9C9
:103210003C2002F072FF32460E21206802F0A4F931
:10322000E2E72A460D2102F09FF93C2002F065FFFB
:103230000122F1E70022F5E73400002040000020E1
:1032400070B50020FFF7C6FF154E30600A2001F070
:103250003BFF0120FFF7BEFF124C20600A2001F067
:1032600033FF0220FFF7B6FF0F4D28600A2001F060
:103270002BFF3368502B06D92368153B0D2B8CBFD1
:103280000320002070BD272B08D82B68272B05D8DA
:103290002368132B8CBF03200220F3E70320F1E700
:1032A00038000020300000201C00002038B50B4CF6
:1032B0000B4D236813F0010F06D100F09FFB28602F
:1032C00023680133236038BD00F098FB2B68C01AD7
:1032D0006023B0FBF3F0034B1860F1E748000020D7
:1032E0005C0000204C00002070B51D481D4D01F011
:1032F000ADFB286028B91C48194902F02DFB0120BC
:1033000070BD436808221C6800210123A0470446C1
:103310002868436800211E6809226223B0471349C8
:10332000134B4B60044328684FF400738B60436871
:10333000DB6864B26BB101229847044364B2286829
:1033400043681B6943B10922002198472043C0B25A
:10335000D6E76FF08500F0E76FF08500F6E700BF75
:10336000F469000844000020816900085000002032
:10337000AD32000873B5184C0025019520684368EC
:1033800008225E6829462B46B0473C2002F0B5FE75
:103390002068436808225E6829460123B0472068F8
:1033A000436809229D68002101ABA84788B9019BA9
:1033B000002BF4D1094B9FED0A7AD3ED007AF8EE99
:1033C000677A67EE877AFCEEE77A17EE900A02B02A
:1033D00070BD0120FBE700BF440000204C0000202E
:1033E000287E8C3C0B6801330B60014B1B6818472F
:1033F000FC1100202DE9F04F85B09B460E9CDFF8B4
:103400008890012CB8BF0124012B0CBF302320234E
:10341000164682468846029301250A270022B6FBFB
:10342000F9F301930AB9B1451DD8019B414603F157
:103430003000D04701350122019B013F012F09FBDC
:1034400013664FF00A03B9FBF3F9E8D1414606F1E0
:103450003000D047BBF1030F02D1641B002C0EDCFF
:1034600005B0BDE8F08FBC42E6DBBBF1020FE3D84C
:103470004146029803920135D047039ADCE7414662
:103480002020D047013CE9E700CA9A3B014B186075
:10349000704700BFFC11002007B5002301930246CE
:1034A0000B46034801A902F0E7F803B05DF804FBFE
:1034B000E53300084FF01002EFF3118382F3118817
:1034C000BFF36F8F83F31188BFF36F8F024B034AF3
:1034D0001A600020704700BF201200200024F40072
:1034E0000A2838B50446074D04D1286843680D21E1
:1034F0005B68984728684368E1B25B689847204654
:1035000038BD00BF6000002010B5044C204600F01C
:10351000B7FD2046BDE81040FFF7B8BFE134000812
:1035200008B5044801F092FA034B1860FFF7ECFF6E
:10353000002008BD086A0008600000202DE9F8435B
:1035400095680D4E04460F464FF0010805F1040939
:10355000BC4201DBBDE8F883726908FA04F333EA80
:10356000020207D1736155F834301BB159F8341099
:10357000204698470134EBE7003C01401F2808B57E
:1035800002DD6FF0850008BD064A01231168834003
:103590000B4316281360F4DC034B185600F0D4FAE2
:1035A0000020F0E7003C01400F6A00081F2806DCFD
:1035B000034901220B68824023EA02030B60704733
:1035C000003C0140CA0710B507D51F2805DC084B91
:1035D00001229C68824022439A608B0707D51F28EE
:1035E00005DC034A0123D16883400B43D36010BD3F
:1035F000003C0140074930B58C6854F8301004EBAA
:10360000C00521B944F830206B60084630BD6FF02A
:103610000F00FBE76C120020044B9A6802EBC0011C
:10362000002342F830304B60704700BF6C1200201E
:103630000B6884B0032B2DD8DFE803F0020E1822AC
:10364000164A4B68116B19431163126B13400093B8
:10365000009B002004B07047104A4B68516B19431F
:103660005163526B13400193019BF2E70B4A4B6885
:10367000116C19431164126C13400293029BE8E72A
:10368000064A4B68516C19435164526C13400393C2
:10369000039BDEE76FF08500DCE700BF00380240E7
:1036A0000B68032B20D8DFE803F0020A1118104A38
:1036B0004968136B23EA01031363002070470C4A27
:1036C0004968536B23EA01035363F6E7084A4968E4
:1036D000136C23EA01031364EFE7054A4968536C4E
:1036E00023EA01035364E8E76FF08500704700BFE9
:1036F00000380240074B09681B68032907D8DFE838
:1037000001F0030302035B081360002070476FF0B1
:10371000850070472012002030B587B000234FF499
:103720008052CDE90032029300F038F803A802F08D
:1037300092F9184B1A68910706D41A6842F00102F0
:103740001A601A689207FCD5124CA36823F0030391
:10375000A360A36823F0F003A360A56815F00C052F
:10376000FBD123680C4823F080732360636823F047
:10377000706343F00063636003AA6B46012101F0AC
:1037800015F9236823F00103236002F06DF9284640
:1037900007B030BD0038024000127A00064B1A6CA8
:1037A00042F080521A641B6C82B003F08053019384
:1037B000019B02B0704700BF0038024073B5044659
:1037C00006090D46104612B9114801F03FF90023D1
:1037D0000093104B53F826300193013302D16FF060
:1037E000040012E0436869461B6898470028F6D138
:1037F0002011800200F1804005F00F032A4604F0FA
:103800000F0100F5003002F0E5F902B070BD00BF15
:10381000316A00086C680008F8B504460E4609488D
:1038200001F014F900250746B54204F1080400D15F
:10383000F8BD3A4654F8041C14F8080CFFF7BEFF14
:103840000135F1E7316A00080F4B30B51A68996805
:103850001D680E4B1C680E4B12F48032186818BF9E
:10386000224621F07F41024408291A6007D915F445
:10387000803F1A6814BF2046002002441A6018686E
:103880002044401A30BD00BF10E000E024010020B9
:103890002801002008B50E4A0E4B12681868104423
:1038A0000D4A186011684FF41653401AB0FBF3F03C
:1038B00003FB00131360094B1A68094B1A600022BE
:1038C0001A6001F091FDBDE8084000F0ADB800BFFE
:1038D00024010020200100201C01002010E000E055
:1038E00028010020094B102283F82320084B42F2C4
:1038F0007F521A60074B00201860074B5A6098608F
:103900001A6842F007021A60704700BF00ED00E03D
:10391000240100202801002010E000E070B5234CB5
:1039200051B1431C08D1224A136823F001031360EC
:103930004FF07F43236070BD013840F2D26398425C
:103940002EDC00282EDD4FF4165303FB00F64FF05B
:103950001003EFF3118583F31188BFF36F8FFFF727
:1039600073FF144B1A6810441860134B1A68C2F5A1
:1039700015533F3333444FF416510344101AB3FB2D
:10398000F1F301FB03000D4B206000221A60084B8D
:10399000013858609A6085F31188BFF36F8FCAE7CA
:1039A0001846D0E74FF48066D1E700BF240100201D
:1039B00010E000E0200100201C0100202801002070
:1039C00010B54FF01003EFF3118483F31188BFF3A8
:1039D0006F8FFFF739FF074B074A1B6812689B1A66
:1039E000184484F31188BFF36F8F4FF41653B0FB64
:1039F000F3F010BD200100201C01002010B54FF095
:103A00001003EFF3118483F31188BFF36F8FFFF777
:103A10001BFF044B1B68184484F31188BFF36F8F9E
:103A200010BD00BF2001002004488168006A884260
:103A300003D003494FF080520A607047080300200A
:103A400004ED00E0094A0A49936809689966094942
:103A500058664B6843F080534B60002383F3118812
:103A6000BFF36F8F9368986E704700BF0803002004
:103A70006469000800ED00E029498A684FF02800D9
:103A80001044EFF3098C80E8F01F4FF010001EEA9D
:103A9000000F04D0D2F8AC0020F0040007E002F1DF
:103AA0006C0080EC108AD2F8AC0050F00400C2F830
:103AB000AC00102080F31188BFF36F8F194F4FF0C7
:103AC00000660A6A8A603E60506E0023536680F387
:103AD0001188D2F8AC0010F0040F05D10023E1EEFC
:103AE000103A5EF0100E05E02EF0100E02F16C00A0
:103AF00090EC108AEFF3148323F0040383F314880B
:103B0000BFF36F8F04B5104601F0BEFFBDE804405F
:103B100002F1280090E8F01F8CF30988704700003C
:103B20000803002004ED00E01EF0040F0CBFEFF3CB
:103B30000880EFF30980816911F8021C0229FFD087
:103B400001B501F096FF01BD43B2002B08DB012255
:103B500000F01F0002FA00F05B09024A42F823005D
:103B6000704700BF00E100E043B2002BA8BF03F1A3
:103B7000604301F101014FEA0111AEBF03F561435A
:103B800000F00F00034BC9B2ACBF83F80013195407
:103B9000704700BF14ED00E073B51E460A9B00930A
:103BA0008C18099B054602F0C7FAA4F120030B4AC2
:103BB00023F0070322F001029A61069A5A60079ADD
:103BC0009A60089ADA604FF080721E60DA61AB6426
:103BD00000236B66C5F8AC3002B070BD45560008D6
:103BE0002DE9F0411F4606460C4690460023E1EEC3
:103BF000103AEFF3148525F0040585F31488BFF31C
:103C00006F8F00F07DF90A4B444430469E6024F0EB
:103C1000070401F039FF384684F30988002163B6B0
:103C200081F31188BFF36F8F0022002301F00AFD9A
:103C300008030020014910220A60704710ED00E0DF
:103C4000404080F3118830BF704700BFEFF3088019
:103C5000EFF30981724601B500F0A4F801BD00BF81
:103C600030BFFFF7FDBF00BF114A08B5114B22F06E
:103C70007F029A60BFF34F8FBFF36F8FD3F8882016
:103C800042F4A002C3F888204FF04042C3F8342227
:103C9000BFF34F8FBFF36F8F0023E1EE103A00F0B8
:103CA000FBFE00F003FF00F0F9F800F031FF00BF69
:103CB0000000000800ED00E001B5EFF30580A0F181
:103CC00010004FEAC0000449014409C99847BDE803
:103CD000014002490847000068620008293A0008CC
:103CE000102080F3118808484FF40061401880F3D9
:103CF0000988EFF314800221084380F31488BFF38E
:103D00006F8FFFF7B1FF0000900800200C4B9A6AFC
:103D10009A6A9A6A920708D55A6B9A6A120604D56B
:103D200018B19A6A22F080029A62054B9A6A9A6ADE
:103D30009A6A9A6A002042F0FF029A6208707047FD
:103D400000ED00E00D4B9A6A9A6A9A6A920508D5CE
:103D50009A6B9A6A120404D518B19A6A22F4004246
:103D60009A62064B9A6A9A6AD20558BF9A6A9A6A08
:103D7000002042F47F429A620870704700ED00E034
:103D8000074B9A6A9A6A9A6A9A6A9A6A9A6A9A6AC5
:103D90006FEA02426FEA12429A620020704700BF47
:103DA00000ED00E070B5364B5B689CB0C3F30803D0
:103DB000002585F31188BFF36F8F02F07F44B4F1C3
:103DC0007F4F12D102F00C04082C0ED014074EBF06
:103DD0000E46064601250022033B8DF80720032BE3
:103DE00047D8DFE803F0043E423B2E46F3E7244B7E
:103DF000DA6A92073DD4DC6A14F0804408D0283394
:103E00001B78EBB10DF107010120FFF77FFF04469E
:103E10009DF8073093B96822314602A8FEF732FFB9
:103E2000099B45B3C3F3080222B96FEA53236FEA33
:103E30004323099302A9204601F019FE1CB070BD6E
:103E4000104B1B782BB10DF107010120FFF77AFF12
:103E5000DDE70D4B1C88A4B2002CD9D0FFF790FFF2
:103E6000D5E70DF107010020CFE70DF10701002094
:103E7000ECE70024CCE723F4FF7323F00103D8E739
:103E800000ED00E029ED00E02AED00E0024A536970
:103E900043F010035361704700ED00E00448002335
:103EA0001021C2180133612B82F80013F9D1704739
:103EB00000E100E038B505464FF01003EFF3118440
:103EC00083F31188BFF36F8F02F052F90A4B9B689E
:103ED000AB420BD1094B5A68C2F3080212B9204613
:103EE000FFF7B0FD5A6842F080525A602046BDE8A4
:103EF000384002F088B800BF0803002000ED00E061
:103F00001FB5084B0193084B0293084B039301AB79
:103F10000093074A074B0121684600F091F805B06D
:103F20005DF804FB000000200000000000000B060C
:103F30000000002000000220F0B5204F00268E4235
:103F400001DB1046F0BD50F826C0DCF8044094B305
:103F50005BB104F1FF3E14EA0E0F1AD11F2C18D9E1
:103F6000DCF800501EEA050F13D1202CDCF80050BD
:103F7000DCF808C0D2B20FD9B4F1004F0ED8013C22
:103F8000B4FA84F4C4F11F046400072A4CEA040460
:103F900006D96FF01502D4E70824F6E73E24F4E7CB
:103FA00025F01F05154345F0100544F00104BA60E3
:103FB000FD6001323C610136C1E700BF90ED00E0D9
:103FC000034B05225A60BFF34F8FBFF36F8F7047CB
:103FD00090ED00E0BFF35F8F014B00225A60704705
:103FE00090ED00E013490868082810B51ED8FFF7C7
:103FF000F1FF114C49680022904201F10C0105D1FA
:104000000E4B1870FFF7DCFF002010BDA26051F8C6
:104010000C3C23F01F03134343F01003E36051F8FB
:10402000043C43F0010323610132E5E74FF0FF3028
:10403000EBE700BF4C68000890ED00E0490300206A
:1040400010B5034C01232278FFF776FF207010BDD6
:104050004903002008B5084A00231278FFF76CFFD7
:1040600010F1160F03D0054B0022072800DD08BD14
:1040700098601A610130F8E74903002090ED00E0F4
:10408000014B1860704700BF1412002038B54FF084
:10409000FF3105460A4801F0C6FA0A4A0A4914687F
:1040A0000748C1F10053254403F500339D4236BF54
:1040B00064184FF0FF34156001F0B0FA204638BDA7
:1040C000D81200202C010020FC12002008B5042189
:1040D0000248FFF7A1FB002008BD00BF9868000858
:1040E000036810B59C68064800F0B0FC436804F112
:1040F00008011B689847002818BF6FF0040010BD26
:10410000316A00082DE9FF411D4603689F6805F0EC
:1041100080030B438046144605D06FF08506304679
:1041200004B0BDE8F08101A9284601F036FD06463D
:104130000028F4D10346019A3868214601F04AFD6F
:1041400010B16FF00406EAE715F00206796851D065
:104150004346414A2046FFF74DFA002878D17E6851
:104160003E4800F073FC3E49024603C902AB83E8B7
:104170000300516810460F681946B8470F2C24DC1D
:10418000624202F0030204F0030358BF53420433B7
:104190009A00002C4FF00F0303FA02F32246B8BF37
:1041A000E21C43EAA203DAB2920002F1804202F575
:1041B0009C321B0C916821EA030193FAA3F3B3FA32
:1041C00083F306FA03F30B439360AA06A5D56B06A7
:1041D0000ED415F0040F14BF012102212046FFF771
:1041E000F1F92046FFF7CAF90028AAD1002696E780
:1041F0000321F3E70F2C28DC634203F0030304F0F0
:10420000030258BF5A4204329300002C4FF00F02B1
:1042100002FA03F22346B8BFE31C42EAA302D3B278
:1042200010480233120C50F82330134092FAA2F2D5
:10423000B2FA82F223FA02F29142D7D12046FFF776
:10424000B5F92046FFF7E8F969E76FF01502F3E7E3
:104250006FF00F0663E700BF9F5A0008316A00083D
:104260004067000800380140F0B51F4689B08668F5
:10427000A2B39A4232D303689B6801F18044196863
:10428000334B013C99424FEA84045ED0B1F1804F38
:1042900027D0304821F40063834253D021F4805565
:1042A00000F5806085424DD021F4806500F5006006
:1042B000854247D021F4804500F57440854241D0C5
:1042C00000F5705083423DD0234B99423DD003F519
:1042D0008063994239D06FF0850031E06FF01500AE
:1042E0002EE084B124F00803042B03D0082C01D065
:1042F0003C2CF0D1B1F1804F05D0184B994202D03F
:10430000B2F5803FE7D80025336C3160013A736025
:10431000F2603561B5607561304601F0A0FD602343
:1043200001A92246304601930395CDE90455CDE914
:104330000655029701F0ADFD2146304601F019FE09
:1043400009B0F0BD002CCDD1D7E7002CCAD1D7E7FA
:104350000000014000040040001C0040000C004030
:1043600038B5036885689C68064800F06FFB4368B1
:1043700068641B68211D9847002818BF6FF004006F
:1043800038BD00BF316A00082DE9F84303680A7997
:104390009B6886681C68012A0D4675D0022A0CBFEE
:1043A0004FF48061002195F8058095F80690EF792B
:1043B000B8F1020F96BF374B4FF4005E33F818E0A8
:1043C000B9F1040F0CBF4FF480530023033A012FBF
:1043D00014BF4FF0000C4FF4407C012A57D918F05D
:1043E000FD0F54D0B9F1020F51D987B12A4A944236
:1043F0000BD0A2F54C42944207D002F58062944261
:1044000003D002F54C42944241D1012F3FD1E268E2
:1044100022F40052E260E26802F4C06291421FBFDF
:10442000E76827F4C0670F43E760226902F440524F
:1044300096451FBF216921F4405141EA0E012161D7
:10444000E268296802F4805293421FBFE26822F4B6
:1044500080521A43E260636903F440739C451FBFB6
:10446000636923F4407343EA0C0363613368994240
:1044700003D001F09CFC2B683360E36843F40053E5
:10448000E3600020BDE8F8834FF4C0618BE76FF074
:104490008500F7E7686900080010014003682DE90E
:1044A000F041D3F8088087684646054656F8084B21
:1044B000184800F0CBFA4368786031461B6898478B
:1044C000064620BBE36823F40053E360E36843F04F
:1044D0000C03E360E36823F4B053E360236923F43F
:1044E0004053236198F8103033B12B689B681A68E9
:1044F000536943F4407353613968284601F057FC0F
:10450000E36843F40053E3603046BDE8F0816FF0A8
:104510000406F9E7316A0008036A23F00103036225
:10452000036A70B5446882690D6822F073022A43F9
:104530008D6823F002032B430E4DA84202D00E4E8D
:10454000B04210D1CE6823F008033343A84223F0D1
:10455000040302D0084DA84205D1D1E9055624F440
:10456000407435432C43446082614A68426303626D
:1045700070BD00BF0000014000040140036A23F445
:1045800080730362036A70B54468C2690D6822F0E3
:1045900073022A438D6823F4007343EA0523114D07
:1045A000A84203D005F58065A84214D1CD6823F454
:1045B000006343EA05230B4DA84223F4806303D034
:1045C00005F58065A84206D1D1E9055624F440548A
:1045D000354344EA05144460C2614A68C263036219
:1045E00070BD00BF00000140036A23F480530362E2
:1045F000036A30B54468C2690D6822F4E64242EAB3
:1046000005228D6823F4005343EA0533084DA84280
:1046100003D005F58065A84204D14D6924F4804497
:1046200044EA85144460C2614A680264036230BD92
:1046300000000140304A0368904212D0B0F1804F30
:104640000FD0A2F57C4290420BD002F580629042DE
:1046500007D002F58062904203D002F57842904282
:1046600019D14A6823F070031343234A904229D09A
:10467000B0F1804F26D0A2F57C42904222D002F5C4
:10468000806290421ED002F5806290421AD002F5FC
:104690007842904216D0194A904213D002F58062B7
:1046A00090420FD002F5806290420BD0A2F5983272
:1046B000904207D002F58062904203D002F58062FA
:1046C000904203D1CA6823F4407313434A6923F02C
:1046D0008003134303608B68C3620B688362064BDD
:1046E000984203D003F58063984201D10B690363BC
:1046F00001234361704700BF0000014000400140BA
:10470000036A23F010030362036A70B54468826988
:104710000D6822F4E64242EA05228D6823F0200368
:1047200043EA0513104DA84203D005F58065A84261
:1047300014D1CD6823F0800343EA05130A4DA84243
:1047400023F0400303D005F58065A84206D1D1E9E6
:10475000055624F44064354344EA8504446082618C
:104760004A688263036270BD0000014010B50446D0
:104770000122006801F0EFFB23680B4A934203D04B
:1047800002F58062934203D15A6C42F400425A64AB
:104790009A6802F00702062A1EBF1A6842F0010258
:1047A0001A60002010BD00BF0000014030B50A4C67
:1047B00041EA82126568094929400A43024362605E
:1047C000626822F440321A436260626822F0E0427A
:1047D0001A43626030BD00BF003802400080BFFF56
:1047E000084B19681A681B6801F0007102F000524A
:1047F0000A4314BF0120002013F0006F18BF0120EE
:10480000704700BF00380240394B1B6803F4404337
:10481000B3F5404F45D103F10F6303F58C53984234
:104820000CD8344B984201D9042308E0324B98420B
:104830002FD8324B98422ED9022300E005232C4A70
:10484000126802F44042B2F5004F08D102F10F6243
:1048500002F5A342904226D9002B08BF0523244A23
:10486000126802F44042B2F5804F05D1224A9042CC
:1048700030D9002B08BF032321490A6822F00F0218
:104880001A430A60086800F00F00C01A18BF012020
:1048900070470323D3E71B4B984294BF00230123A7
:1048A000CDE70023CBE7184A904205D9124A002BE6
:1048B00008BF04239042D2D8104A904203D9002B5B
:1048C00008BF0223CBE70F4A9042C8D9002B08BF8C
:1048D0000123C4E7094A904203D9002B08BF0223F1
:1048E000CAE7084A9042C7D9002B08BF0123C3E793
:1048F00000700040000E2707804A5D050087930383
:10490000003C024080C3C901001BB7000B68244A69
:10491000C3F3031370B5234DD45C2B6820FA04F461
:10492000A3420E4627D3204B1A6842F080721A60C9
:104930001A689201FCD59A68316822F0F0020A43A5
:104940009A609A6822F0030242F002029A60164BC3
:104950009A6802F00C02082AFAD19A68716822F467
:10496000E0520A439A609A68B16822F460420A43AE
:104970009A60002005E074B12046FFF745FF00284B
:10498000D1D02B68A34203D93CB12046FFF73CFFAE
:1049900000B92C6070BD0120F3E70120FAE700BFE9
:1049A000506A00082012002000380240F8B5054681
:1049B0000F4614461E46FFF713FF60BB216862686E
:1049C00001F03F03B5FBF3F5C2F308035D43A368B1
:1049D000124C180C01304000B5FBF0F52068800344
:1049E0000FD42068012F0CBF40F4802020F48020D9
:1049F0002060206840F480302060084C20688003EC
:104A0000FCD54FF48000FFF7D1FE31462846BDE8C3
:104A1000F840FFF77BBF0120F8BD00BF003802401F
:104A2000094B70B553F820400130002653F8205050
:104A3000A54200D870BD236820465B68984700B146
:104A400066600C34F4E700BF50690008104B70B585
:104A5000104C05461E469C4204D10E4CB44209D16E
:104A6000002412E062681AB122681268AA420CD0CF
:104A70000C34F0E763680BB90C34EFE72368284681
:104A80001968FEF715F90028F6D1204670BD00BF61
:104A9000D8120020301200200248034A0021121AC6
:104AA000FEF7FEB8000000205003002008B50648BD
:104AB000064A0749121AFEF7E5F8064A064907486A
:104AC000BDE80840FEF7DEB890100020FC12002080
:104AD000F46A000800000000F46A000800000020EA
:104AE00008B50220FFF79CFF074800F035FF0320C0
:104AF000FFF796FF00F0B4FBFEF79CFA034A137B26
:104B000023F00103137308BD606A000858020020F7
:104B100080B5364BB2B083F30888354C354E6369A7
:104B200043F4007363610025F02384F82230E577B5
:104B300025766576A576636A43F4E0236362FFF722
:104B4000A5F9FFF777F84FF0FF33A362E36206ABF6
:104B5000B02229461846FEF7A3F8274C0127A0608B
:104B600028468DF82570FFF75BFF3846FFF758FFA2
:104B700000F052FA214B26624FF48062CDE90473B3
:104B8000CDE902551E4B1F49CDE90055304600F0D6
:104B90002FFB737B23F0040213F01B0F727304D1FD
:104BA000B36913B9304600F0E7F8174B174D05937A
:104BB00001220F23CDE903320023CDE90133009315
:104BC0004FF4A072124B1349284600F011FB6B7B87
:104BD000E56023F004036B730F4B0A490548C4E9F1
:104BE00006334FF48062064BFEF7FAFF9010002068
:104BF00000ED00E05802002008030020A26A00082F
:104C0000E14A000850030020A76A0008A80100201C
:104C100037620008500700202003002038B5074CF9
:104C2000074DAC4201D3002038BD04F114032046E7
:104C3000C4E9053300F0ACFC1C34F2E7D8120020C4
:104C4000D812002010B5084C23685BB1FEF7B8FEFF
:104C50002368064A1844106100211846BDE8104038
:104C600001F0CBBA10BD00BF4003002008030020B4
:104C700010B54FF01003EFF3118483F31188BFF3E5
:104C80006F8F084B00221A61074A0A2343431360BF
:104C9000064B1960FFF7D6FF84F31188BFF36F8FBF
:104CA00010BD00BF08030020400300203C0300208B
:104CB0004FF01003EFF3118183F31188BFF36F8F6F
:104CC000044B9A68D37B013BD37381F31188BFF304
:104CD0006F8F704708030020094B03F124028242C2
:104CE00005D19B688B4202D14B7BDB0606D1D1E913
:104CF000003213605A600023C1E90033704700BFDF
:104D00000803002038B50D4C024604F1240001F0E0
:104D100090F9054600B9E568A3684AB95A7BD206FE
:104D200006D1AA6922B9DA897F2A01D9236238BD5E
:104D30009D4201D0FFF786FF2562F8E708030020B7
:104D400010B54FF01003EFF3118483F31188BFF314
:104D50006F8F084B9A68D37B0133D3730020FFF722
:104D6000D1FF84F31188BFF36F8FBDE8104001F0CD
:104D700056B900BF08030020F8B54FF01003EFF359
:104D8000118483F31188BFF36F8F154A114651F8D0
:104D9000243F8B421DD0E3B1966A90F90E5093F9EF
:104DA0000E70AF4210DD5A68C0E9003210605860E2
:104DB000437B43F0400343730020FFF7A3FF84F3DA
:104DC0001188BFF36F8FF8BDB34202D01B68002B70
:104DD000E5D1936A4360936A016018609062E7E7E7
:104DE00008030020F8B504464FF01003EFF31185D7
:104DF00083F31188BFF36F8F437B5A0603D50146B7
:104E00001748FFF769FF174AD2E9093002F1240178
:104E10008B421FD0F3B194F90E6093F90E70B74234
:104E200013DD5968C4E900310C605C60637B9068F5
:104E300043F040036373031B58425841FFF762FF7E
:104E400085F31188BFF36F8FF8BD834202D01B68D2
:104E5000002BE2D1C4E90010936A1C609462E5E77C
:104E60002C03002008030020154A164938B50C68A9
:104E70009368A342144603D1BDE83840FFF7E2BE71
:104E800000250D6010490968B9B1D9897F2914D866
:104E90000E4993F90E5009688D420EDB0C498B4286
:104EA0000BD0996949B91169814203DC1846FFF7B3
:104EB00099FFE1E7091A116138BD00232361FBE77F
:104EC0000803002038030020400300203C0300209A
:104ED000A801002038B504464FF01003EFF3118508
:104EE00083F31188BFF36F8F437B5A0607D50146C2
:104EF0000948FFF7F1FE637B23F040036373074B20
:104F00009868031B58425841FFF7FCFE85F311884F
:104F1000BFF36F8F38BD00BF2C03002008030020B3
:104F200070B504460D461646FFF7D4FF637B43F089
:104F3000020363737DB12B68A5609D421FD0F3B15E
:104F400094F90E2093F90E10914212DD5A68C4E9CB
:104F5000003214605C60731C18D026EAE6760A22E0
:104F6000724304F1180001320949BDE8704000F0B5
:104F7000F9B969688B4202D01B68002BE2D16B68DB
:104F800063606B6825601C606C60E4E770BD00BF07
:104F90003F60000810B50C461146064A9068064A64
:104FA00010601A46FFF7BCFF2046BDE81040FEF730
:104FB00049BD00BF0803002038030020F8B5461C97
:104FC00001F035F934184FF01003EFF3118783F334
:104FD0001188BFF36F8F0D4D0D4BA8681860FFF758
:104FE00079FFA8680B493246183000F0BBF9AA686F
:104FF000537B43F0100353733846FEF723FD01F053
:1050000016F9201A20EAE070F8BD00BF080300205E
:10501000380300203F600008044B002103F1240204
:10502000C3E909220846FFF723BE00BF080300209A
:10503000F8B5234C234BA2689A4229D04FF01003B5
:10504000EFF3118683F31188BFF36F8F04F124050A
:10505000A1682846FFF740FE626AA368AA4228D0EA
:105060003AB3A06A93F90E1092F90E708F421BDDCD
:105070005168C3E900210B6053605A7B42F0400243
:105080005A730120FFF73EFE86F31188BFF36F8F3E
:105090004FF01003EFF3118083F31188BFF36F8F8C
:1050A000BDE8F840FEF7CEBC824202D01268002A6A
:1050B000DAD1A26A5A60A26A1D601360A362DCE7BB
:1050C00008030020A801002038B5431C054605D17F
:1050D0000B4B986800F0A4F8284638BD0A244443D6
:1050E00009D1FFF7A5FF0A2200232046E117FCF7AC
:1050F00045FB0546F0E72046FFF760FF0446F2E770
:1051000008030020014B9868704700BF0803002087
:1051100070B504464FF01003EFF3118683F3118846
:10512000BFF36F8F00F0BCFF054670B1437BDB0619
:1051300003D183690BB9FFF71FFE0023AB6631462D
:105140000548BDE8704000F053BFD4E902329A42EE
:1051500018BF0133A360F2E74A03002010B40246EF
:105160000B464FF01000EFF3118180F31188BFF36D
:105170006F8F94684CB1013C946081F31188BFF348
:105180006F8F00205DF8044B704733B981F31188AD
:10519000BFF36F8F6FF00F00F4E702485DF8044B28
:1051A000FFF7F8BE4A03002010B502464FF0100387
:1051B000EFF3118483F31188BFF36F8F437B59079B
:1051C00004D484F31188BFF36F8F10BD23F0040360
:1051D000437300F0A8FF10B11046FFF7CDFD214644
:1051E0000248BDE8104000F003BF00BF4A030020A2
:1051F00030B587B004460E9D04950D9D03950C9D1A
:1052000002950B9D01950A9D0095FEF7C5FC034B89
:105210009B6803B11B6E236607B030BD08030020F6
:1052200038B505464FF01003EFF3118483F311886E
:10523000BFF36F8F00F08FFF074B9B68AB4205D128
:1052400021460648BDE8384000F0D2BE84F31188FC
:10525000BFF36F8F38BD00BF080300204A03002052
:10526000F0B5204E204D87B03746B54205F13004E9
:105270000BD3FFF71DFD1C4C1C4E0A25BC4221D34D
:1052800007B0BDE8F040FFF75BBD54F8043C059360
:1052900054F8103C049354F8143C039354F8183C0D
:1052A000029354F81C3C019354F8203C009354E9B9
:1052B0000A2354E90C01FFF79BFF54F8303CDD64EE
:1052C0002546D2E7626A531C03D020681AB9FFF75B
:1052D0006BFF3034D2E76A4301323146183000F0B8
:1052E00041F8F6E7D8120020D81200203F600008ED
:1052F000034B1B680BB9FEF763BB0020704700BF70
:1053000044030020036840B1074A5268904204D029
:105310001BB19A6881680A449A60426813605A60B7
:105320000023C0E900337047241200200B4B10B556
:105330001C689C4208BF0024FFF7DAFF54B1A36841
:10534000181A20EAE070064B1B6913B19842A8BFF7
:10535000184610BD6FF00040F5E700BF2412002092
:105360000803002070B504461646C1604FF01003D4
:10537000EFF3118583F31188BFF36F8FFFF7B8FF49
:10538000184B1A68012EACBF801901309A42A060F8
:1053900001D05E6832B95A6862605A68236014604E
:1053A0005C600AE09068A168884215DD411A91604E
:1053B0005168C4E900210C6054601A689A4206D012
:1053C000944204D1FFF7B2FF0021FEF7A7FA85F35C
:1053D0001188BFF36F8F70BD091AB242A160DAD095
:1053E0001268D7E7241200202DE9F04B0446FFF79E
:1053F0003BFD4FF01003EFF3118583F31188BFF3EA
:105400006F8F214E214FDFF888903460B846D9F86D
:10541000004032684C45D7E900BC05D024B1A368F0
:10542000934214DD9B1AA3601BEB02004CEBE2716C
:105430000024C8E900013460FFF778FF2146FEF739
:105440006DFA85F31188BFF36F8FBDE8F08B1BEB0E
:1054500003004CEBE371D31A33600023C7E900016A
:10546000A3602046FFF74EFF85F31188BFF36F8FCF
:10547000E36898474FF01003EFF3118583F3118829
:10548000BFF36F8FC3E700BF440300200800002074
:10549000241200202DE918484FF01003EFF3118477
:1054A00083F31188BFF36F8FFEF78AFA074BD3E9B6
:1054B000002312EB000B43F1000C5846614684F3C5
:1054C0001188BFF36F8FBDE8188800BF0800002067
:1054D00010B41346426854680A46A44600215DF899
:1054E000044B604710B40A4643681C680021A44678
:1054F00001235DF8044B6047FFF7E6BD08B5FDF7F3
:105500003FFC6420FFF7F8FFFDF7EEFE6420FFF795
:10551000F3FFFDF7B7FD6420FFF7EEFFFDF714FE84
:105520006420BDE80840FFF7E7BF0020FDF760BC3E
:1055300008B50020FDF776FC0A20FFF7DDFFFDF738
:10554000D5FD28B10220FDF76DFC1420FFF7D4FF34
:10555000FDF7BCFD38B10320FDF764FC1420BDE865
:105560000840FFF7C9BF08BD10B41346426854682D
:105570000A46A44600215DF8044B604710B4134668
:10558000426814680A46A44600215DF8044B60474F
:105590002DE9F04F46680789016890F80A80FF23DB
:1055A00006FB07FCC3726144324600234FF00C092E
:1055B000984505DC002319468F4220DCBDE8F08FBA
:1055C000D0F80CA0BCFBF2F509FB03FE0AEB0E04BD
:1055D00004F1040B202DC4E901BB05D8C372920865
:1055E00022F003020133E3E715F11F0448BF05F180
:1055F0003E0464114AF80E1001EB8401EFE7C26823
:10560000056802F1040CEC1845F803C09568656064
:10561000956801312C6033449460CDE708B5FFF7FD
:1056200077FD002008BD08B5FFF798FD10F10B0FBE
:1056300005D010F1100F08BF6FF0730008BD6FF0B8
:105640007300FBE7044608B5084611461A46A04712
:10565000FFF758FDFEF72EFC0020704770B504469A
:105660000D464520A04729465220A04729462346FB
:105670005220BDE8704018472DE9F04F8BB01C4612
:105680004FF00008531E06460F4602934FF0FF3AB4
:10569000C146002505E06DB9252800F04F81394647
:1056A000B047029B13F8010F02930028F3D10BB00F
:1056B000BDE8F08F64286ED01AD839280AD831286E
:1056C00060D22D2800F0408130284CD0252807D109
:1056D00039460BE0582800F0BB80632800F02A818F
:1056E00039462520B047029B18783946B047D0E7A5
:1056F000702800F0A38011D869284CD06C2805D1FF
:10570000B8F16C0F2AD14FF04C08CAE76828E7D1EE
:10571000B8F1680F22D14FF04808C2E7752871D060
:1057200018D87328DCD154F8045BAB465B461BF8F1
:10573000010B002840F0FB80B9F1030F40F00A8113
:105740005D1BAAEB0505002DA3DD39462020B047DF
:10575000013DF8E778287BD07A28C1D1B8F1000F55
:10576000BED180469DE7BAF1000F0EDAB9F1000F05
:1057700000F0ED80A0F1300AB9F1000F08BF4FF042
:1057800002098EE7BAF1000FF4DB0A2303FB0A0AD1
:10579000AAF1300AF0E7B8F17A0F02D154F8045BAD
:1057A0001FE0B8F16C0FF9D0B8F14C0FF6D1073407
:1057B00024F00704F4E8022312F10041069143F1BA
:1057C00000010791DDE906BC00214FF0FF30614583
:1057D00008BF584504D239463046FFF73FFF58E727
:1057E0001546002D05DA39462D20B0476D420AF1E5
:1057F000FF3ACDF800A04B462A4639463046FDF721
:10580000F9FD46E7B8F17A0F02D154F8042B11E004
:10581000B8F16C0FF9D0B8F14C0FF6D1073424F081
:105820000704F4E8022300214FF0FF30994208BF3B
:105830009042D0D3CDF800A04B46DEE73946302069
:10584000B04739467820B0474FF0080A4FF00109B9
:10585000029B1B78702B04D154F8043B0493002363
:105860000DE0B8F16C0FF7D0B8F14C0FF4D107345C
:1058700024F007031C465B6854F8082B04920021AF
:105880001022039105914FF0400BABF1040B0498EB
:10589000CBF1200CABF1200120FA0BF003FA0CFC49
:1058A00040EA0C0023FA01F1084310F00F0008D180
:1058B000059911B9BBF1000F24D1302105E0059500
:1058C000E3E709288CBF57213021084440B239460C
:1058D00008930592B047039B059A01330393089BF5
:1058E000BBF1000FEBD1B9F1030F7FF4D2AE039BF4
:1058F000C3EB4A05002D7FF7CCAE39462020B047D8
:10590000013DF7E7511E9245089107DBB9F1010F00
:1059100006D1099339463020B047099B089AB4E76D
:10592000B9F1020FFAD1099339462020F4E739463C
:10593000B047FBE6394654F8040BD7E6A846A9461B
:105940004FF0FF3A0125ACE64FF00309A9E64FF00E
:105950000109A6E60546A4E60FB407B504A951F867
:10596000040B0191FDF798FD03B05DF804EB04B062
:1059700070477047024601210020FDF7DFBD024657
:1059800002210120FDF7DABD024603210220FDF7C6
:10599000D5BD024604210320FDF7D0BD02460521F6
:1059A0000420FDF7CBBD02460A210520FDF7C6BD48
:1059B000024610210A20FDF7C1BD02461121102028
:1059C000FDF7BCBD024613211220FDF7B7BD02460C
:1059D00016211520FDF7B2BD024617211620FDF74E
:1059E000ADBD002208B511460620FEF7BDF8002225
:1059F00011460720FEF7B8F8002211460820FEF7EE
:105A0000B3F8002211460920FEF7AEF80022114635
:105A10000A20FEF7A9F8002211461720FEF7A4F885
:105A2000002211462820FEF79FF80022114601208F
:105A3000FEF79AF8002211462A20FEF795F8002278
:105A400011460220FEF790F8002211460320FEF7CF
:105A50008BF8002008BD4FF4C0730822C0E9002372
:105A60004FF48033836070477047FEF7EFB800F063
:105A70008EBA0146006800F08ABA08B5FEF7F0F861
:105A8000BDE80840FDF7D0BF07B5002101A8FEF72B
:105A9000E1FA03B05DF804FB4FF0FF3070478A680D
:105AA0001368C340DB0770B50E460FD5516869B166
:105AB00001250C6885408B681D4203D04B682A463F
:105AC0003046984714B121462468F4E770BD006859
